{
  "address": "0x3e380A0d364358519BC3847d996bc5a17d9Bf268",
  "abi": [
    {
      "inputs": [],
      "stateMutability": "nonpayable",
      "type": "constructor"
    },
    {
      "inputs": [],
      "name": "AccessControlBadConfirmation",
      "type": "error"
    },
    {
      "inputs": [
        {
          "internalType": "address",
          "name": "account",
          "type": "address"
        },
        {
          "internalType": "bytes32",
          "name": "neededRole",
          "type": "bytes32"
        }
      ],
      "name": "AccessControlUnauthorizedAccount",
      "type": "error"
    },
    {
      "inputs": [],
      "name": "DuplicateRequestId",
      "type": "error"
    },
    {
      "inputs": [],
      "name": "Unauthorized",
      "type": "error"
    },
    {
      "anonymous": false,
      "inputs": [
        {
          "indexed": true,
          "internalType": "address",
          "name": "player",
          "type": "address"
        },
        {
          "indexed": false,
          "internalType": "uint256",
          "name": "streak",
          "type": "uint256"
        },
        {
          "indexed": false,
          "internalType": "uint256",
          "name": "longestStreak",
          "type": "uint256"
        },
        {
          "indexed": false,
          "internalType": "uint256",
          "name": "activityCount",
          "type": "uint256"
        }
      ],
      "name": "ActivityRecorded",
      "type": "event"
    },
    {
      "anonymous": false,
      "inputs": [
        {
          "indexed": true,
          "internalType": "bytes32",
          "name": "role",
          "type": "bytes32"
        },
        {
          "indexed": true,
          "internalType": "bytes32",
          "name": "previousAdminRole",
          "type": "bytes32"
        },
        {
          "indexed": true,
          "internalType": "bytes32",
          "name": "newAdminRole",
          "type": "bytes32"
        }
      ],
      "name": "RoleAdminChanged",
      "type": "event"
    },
    {
      "anonymous": false,
      "inputs": [
        {
          "indexed": true,
          "internalType": "bytes32",
          "name": "role",
          "type": "bytes32"
        },
        {
          "indexed": true,
          "internalType": "address",
          "name": "account",
          "type": "address"
        },
        {
          "indexed": true,
          "internalType": "address",
          "name": "sender",
          "type": "address"
        }
      ],
      "name": "RoleGranted",
      "type": "event"
    },
    {
      "anonymous": false,
      "inputs": [
        {
          "indexed": true,
          "internalType": "bytes32",
          "name": "role",
          "type": "bytes32"
        },
        {
          "indexed": true,
          "internalType": "address",
          "name": "account",
          "type": "address"
        },
        {
          "indexed": true,
          "internalType": "address",
          "name": "sender",
          "type": "address"
        }
      ],
      "name": "RoleRevoked",
      "type": "event"
    },
    {
      "anonymous": false,
      "inputs": [
        {
          "indexed": true,
          "internalType": "address",
          "name": "player",
          "type": "address"
        },
        {
          "indexed": false,
          "internalType": "uint256",
          "name": "streak",
          "type": "uint256"
        },
        {
          "indexed": false,
          "internalType": "uint256",
          "name": "longestStreak",
          "type": "uint256"
        }
      ],
      "name": "StreakUpdated",
      "type": "event"
    },
    {
      "inputs": [],
      "name": "BACKEND_ROLE",
      "outputs": [
        {
          "internalType": "bytes32",
          "name": "",
          "type": "bytes32"
        }
      ],
      "stateMutability": "view",
      "type": "function"
    },
    {
      "inputs": [],
      "name": "DEFAULT_ADMIN_ROLE",
      "outputs": [
        {
          "internalType": "bytes32",
          "name": "",
          "type": "bytes32"
        }
      ],
      "stateMutability": "view",
      "type": "function"
    },
    {
      "inputs": [
        {
          "internalType": "address",
          "name": "",
          "type": "address"
        }
      ],
      "name": "activityProfiles",
      "outputs": [
        {
          "internalType": "uint64",
          "name": "lastActivityTimestamp",
          "type": "uint64"
        },
        {
          "internalType": "uint64",
          "name": "activityCount",
          "type": "uint64"
        },
        {
          "internalType": "uint64",
          "name": "currentStreak",
          "type": "uint64"
        },
        {
          "internalType": "uint64",
          "name": "longestStreak",
          "type": "uint64"
        }
      ],
      "stateMutability": "view",
      "type": "function"
    },
    {
      "inputs": [],
      "name": "activityStatistics",
      "outputs": [
        {
          "components": [
            {
              "internalType": "uint256",
              "name": "totalActivities",
              "type": "uint256"
            },
            {
              "internalType": "uint256",
              "name": "totalUniquePlayers",
              "type": "uint256"
            }
          ],
          "internalType": "struct IActivityRegistry.ActivityStatistics",
          "name": "",
          "type": "tuple"
        }
      ],
      "stateMutability": "view",
      "type": "function"
    },
    {
      "inputs": [],
      "name": "activityStats",
      "outputs": [
        {
          "internalType": "uint256",
          "name": "totalActivities",
          "type": "uint256"
        },
        {
          "internalType": "uint256",
          "name": "totalUniquePlayers",
          "type": "uint256"
        }
      ],
      "stateMutability": "view",
      "type": "function"
    },
    {
      "inputs": [
        {
          "internalType": "bytes32",
          "name": "role",
          "type": "bytes32"
        }
      ],
      "name": "getRoleAdmin",
      "outputs": [
        {
          "internalType": "bytes32",
          "name": "",
          "type": "bytes32"
        }
      ],
      "stateMutability": "view",
      "type": "function"
    },
    {
      "inputs": [
        {
          "internalType": "bytes32",
          "name": "role",
          "type": "bytes32"
        },
        {
          "internalType": "address",
          "name": "account",
          "type": "address"
        }
      ],
      "name": "grantRole",
      "outputs": [],
      "stateMutability": "nonpayable",
      "type": "function"
    },
    {
      "inputs": [
        {
          "internalType": "bytes32",
          "name": "role",
          "type": "bytes32"
        },
        {
          "internalType": "address",
          "name": "account",
          "type": "address"
        }
      ],
      "name": "hasRole",
      "outputs": [
        {
          "internalType": "bool",
          "name": "",
          "type": "bool"
        }
      ],
      "stateMutability": "view",
      "type": "function"
    },
    {
      "inputs": [
        {
          "internalType": "bytes32",
          "name": "",
          "type": "bytes32"
        }
      ],
      "name": "processedRequestIds",
      "outputs": [
        {
          "internalType": "bool",
          "name": "",
          "type": "bool"
        }
      ],
      "stateMutability": "view",
      "type": "function"
    },
    {
      "inputs": [
        {
          "internalType": "address",
          "name": "player",
          "type": "address"
        }
      ],
      "name": "profileActivity",
      "outputs": [
        {
          "components": [
            {
              "internalType": "uint64",
              "name": "lastActivityTimestamp",
              "type": "uint64"
            },
            {
              "internalType": "uint64",
              "name": "activityCount",
              "type": "uint64"
            },
            {
              "internalType": "uint64",
              "name": "currentStreak",
              "type": "uint64"
            },
            {
              "internalType": "uint64",
              "name": "longestStreak",
              "type": "uint64"
            }
          ],
          "internalType": "struct IActivityRegistry.ActivityProfile",
          "name": "",
          "type": "tuple"
        }
      ],
      "stateMutability": "view",
      "type": "function"
    },
    {
      "inputs": [
        {
          "internalType": "address",
          "name": "player",
          "type": "address"
        },
        {
          "internalType": "bytes32",
          "name": "requestId",
          "type": "bytes32"
        }
      ],
      "name": "recordActivity",
      "outputs": [],
      "stateMutability": "nonpayable",
      "type": "function"
    },
    {
      "inputs": [
        {
          "internalType": "bytes32",
          "name": "role",
          "type": "bytes32"
        },
        {
          "internalType": "address",
          "name": "callerConfirmation",
          "type": "address"
        }
      ],
      "name": "renounceRole",
      "outputs": [],
      "stateMutability": "nonpayable",
      "type": "function"
    },
    {
      "inputs": [
        {
          "internalType": "address",
          "name": "player",
          "type": "address"
        }
      ],
      "name": "resetStreak",
      "outputs": [],
      "stateMutability": "nonpayable",
      "type": "function"
    },
    {
      "inputs": [
        {
          "internalType": "bytes32",
          "name": "role",
          "type": "bytes32"
        },
        {
          "internalType": "address",
          "name": "account",
          "type": "address"
        }
      ],
      "name": "revokeRole",
      "outputs": [],
      "stateMutability": "nonpayable",
      "type": "function"
    },
    {
      "inputs": [
        {
          "internalType": "bytes4",
          "name": "interfaceId",
          "type": "bytes4"
        }
      ],
      "name": "supportsInterface",
      "outputs": [
        {
          "internalType": "bool",
          "name": "",
          "type": "bool"
        }
      ],
      "stateMutability": "view",
      "type": "function"
    }
  ],
  "transactionHash": "0x566abab1e7014666d067c3329bb4d545c839c6e082b549ab052caaf2261adc51",
  "args": [],
  "numDeployments": 1,
  "solcInputHash": "efff8684b17874e72892a7d6ab8a4eb4",
  "bytecode": "0x608060405234801561000f575f5ffd5b5061001a5f3361004b565b506100457f25cf2b509f2a7f322675b2a5322b182f44ad2c03ac941a0af17c9b178f5d5d5f3361004b565b506100f4565b5f828152602081815260408083206001600160a01b038516845290915281205460ff166100eb575f838152602081815260408083206001600160a01b03861684529091529020805460ff191660011790556100a33390565b6001600160a01b0316826001600160a01b0316847f2f8788117e7eff1d82e926ec794901d17c78024a50270940304540a733656f0d60405160405180910390a45060016100ee565b505f5b92915050565b610af3806101015f395ff3fe608060405234801561000f575f5ffd5b50600436106100f0575f3560e01c806391d1485411610093578063d49415a011610063578063d49415a014610326578063d547741f146103a0578063e3515e7e146103b3578063fd33864d146103c6575f5ffd5b806391d14854146101f657806392c2becc14610209578063a217fddf14610230578063cca6cc6d14610237575f5ffd5b806336568abe116100ce57806336568abe146101615780634cee2b5414610174578063730f1fa914610197578063817c97ad146101b9575f5ffd5b806301ffc9a7146100f4578063248a9ca31461011c5780632f2ff15d1461014c575b5f5ffd5b61010761010236600461099e565b6103d9565b60405190151581526020015b60405180910390f35b61013e61012a3660046109cc565b5f9081526020819052604090206001015490565b604051908152602001610113565b61015f61015a3660046109fe565b61040f565b005b61015f61016f3660046109fe565b610439565b600354600454610182919082565b60408051928352602083019190915201610113565b6101076101a53660046109cc565b60026020525f908152604090205460ff1681565b6040805180820182525f80825260209182015281518083018352600354808252600454918301918252835190815290519181019190915201610113565b6101076102043660046109fe565b610471565b61013e7f25cf2b509f2a7f322675b2a5322b182f44ad2c03ac941a0af17c9b178f5d5d5f81565b61013e5f81565b6102cb610245366004610a28565b604080516080810182525f808252602082018190529181018290526060810191909152506001600160a01b03165f90815260016020908152604091829020825160808101845290546001600160401b038082168352600160401b8204811693830193909352600160801b8104831693820193909352600160c01b90920416606082015290565b60405161011391905f6080820190506001600160401b0383511682526001600160401b0360208401511660208301526001600160401b0360408401511660408301526001600160401b03606084015116606083015292915050565b61036d610334366004610a28565b60016020525f90815260409020546001600160401b0380821691600160401b8104821691600160801b8204811691600160c01b90041684565b604080516001600160401b0395861681529385166020850152918416918301919091529091166060820152608001610113565b61015f6103ae3660046109fe565b610499565b61015f6103c1366004610a28565b6104bd565b61015f6103d4366004610a41565b61057e565b5f6001600160e01b03198216637965db0b60e01b148061040957506301ffc9a760e01b6001600160e01b03198316145b92915050565b5f8281526020819052604090206001015461042981610858565b6104338383610865565b50505050565b6001600160a01b03811633146104625760405163334bd91960e11b815260040160405180910390fd5b61046c82826108f4565b505050565b5f918252602082815260408084206001600160a01b0393909316845291905290205460ff1690565b5f828152602081905260409020600101546104b381610858565b61043383836108f4565b6104e77f25cf2b509f2a7f322675b2a5322b182f44ad2c03ac941a0af17c9b178f5d5d5f33610471565b610503576040516282b42960e81b815260040160405180910390fd5b6001600160a01b0381165f818152600160209081526040808320805467ffffffffffffffff60801b19168082558251948552600160c01b90046001600160401b0316928401929092529092917fd9ad1f2b351c160231808ff9bc723542c8d3b0cdad54db25801bfe561bd4c6e3910160405180910390a25050565b6105a87f25cf2b509f2a7f322675b2a5322b182f44ad2c03ac941a0af17c9b178f5d5d5f33610471565b6105c4576040516282b42960e81b815260040160405180910390fd5b5f8181526002602052604090205460ff16156105f25760405162c7e13f60e61b815260040160405180910390fd5b5f818152600260209081526040808320805460ff191660019081179091556001600160a01b038616845290915281209061062f6201518042610a7d565b82549091505f9061064d9062015180906001600160401b0316610a90565b83546fffffffffffffffff000000000000000019811660016001600160401b03600160401b9384900481168201811690930291909117865560038054909101905584549181169250165f036106ce5782546fffffffffffffffffffffffffffffffff166801000000000000000160801b17835560048054600101905561076d565b8060010182036107495782546001600160401b03600160801b80830482166001018216810267ffffffffffffffff60801b1990931692909217808655600160c01b81048216929004161115610744578254600160c01b6001600160401b03600160801b830416026001600160c01b039091161783555b61076d565b8060010182111561076d57825467ffffffffffffffff60801b1916600160801b1783555b82546001600160401b0342811667ffffffffffffffff199092169190911780855560408051600160801b830484168152600160c01b830484166020820152600160401b9092049092168183015290516001600160a01b038716917fac3c2beb7724a927c9efcb9aa36d9cc3215467ad97652337ec58c5527ba70e53919081900360600190a28254604080516001600160401b03600160801b840481168252600160c01b90930490921660208301526001600160a01b038716917fd9ad1f2b351c160231808ff9bc723542c8d3b0cdad54db25801bfe561bd4c6e3910160405180910390a25050505050565b610862813361095d565b50565b5f6108708383610471565b6108ed575f838152602081815260408083206001600160a01b03861684529091529020805460ff191660011790556108a53390565b6001600160a01b0316826001600160a01b0316847f2f8788117e7eff1d82e926ec794901d17c78024a50270940304540a733656f0d60405160405180910390a4506001610409565b505f610409565b5f6108ff8383610471565b156108ed575f838152602081815260408083206001600160a01b0386168085529252808320805460ff1916905551339286917ff6391f5c32d9c69d2a47ea670b442974b53935d1edc7fd64eb21e047a839171b9190a4506001610409565b6109678282610471565b61099a5760405163e2517d3f60e01b81526001600160a01b03821660048201526024810183905260440160405180910390fd5b5050565b5f602082840312156109ae575f5ffd5b81356001600160e01b0319811681146109c5575f5ffd5b9392505050565b5f602082840312156109dc575f5ffd5b5035919050565b80356001600160a01b03811681146109f9575f5ffd5b919050565b5f5f60408385031215610a0f575f5ffd5b82359150610a1f602084016109e3565b90509250929050565b5f60208284031215610a38575f5ffd5b6109c5826109e3565b5f5f60408385031215610a52575f5ffd5b610a5b836109e3565b946020939093013593505050565b634e487b7160e01b5f52601260045260245ffd5b5f82610a8b57610a8b610a69565b500490565b5f6001600160401b03831680610aa857610aa8610a69565b806001600160401b038416049150509291505056fea2646970667358221220116ee21b77ee0bc3b722ca00293cc788fb23e22a5e2f7f552708466238d5058364736f6c634300081c0033",
  "devdoc": {
    "details": "Backend-authorized only. No historical arrays, only aggregate statistics.",
    "errors": {
      "AccessControlBadConfirmation()": [
        {
          "details": "The caller of a function is not the expected one. NOTE: Don't confuse with {AccessControlUnauthorizedAccount}."
        }
      ],
      "AccessControlUnauthorizedAccount(address,bytes32)": [
        {
          "details": "The `account` is missing a role."
        }
      ]
    },
    "events": {
      "RoleAdminChanged(bytes32,bytes32,bytes32)": {
        "details": "Emitted when `newAdminRole` is set as ``role``'s admin role, replacing `previousAdminRole` `DEFAULT_ADMIN_ROLE` is the starting admin for all roles, despite {RoleAdminChanged} not being emitted to signal this."
      },
      "RoleGranted(bytes32,address,address)": {
        "details": "Emitted when `account` is granted `role`. `sender` is the account that originated the contract call. This account bears the admin role (for the granted role). Expected in cases where the role was granted using the internal {AccessControl-_grantRole}."
      },
      "RoleRevoked(bytes32,address,address)": {
        "details": "Emitted when `account` is revoked `role`. `sender` is the account that originated the contract call:   - if using `revokeRole`, it is the admin role bearer   - if using `renounceRole`, it is the role bearer (i.e. `account`)"
      }
    },
    "kind": "dev",
    "methods": {
      "activityStatistics()": {
        "returns": {
          "_0": "The activity statistics struct"
        }
      },
      "getRoleAdmin(bytes32)": {
        "details": "Returns the admin role that controls `role`. See {grantRole} and {revokeRole}. To change a role's admin, use {_setRoleAdmin}."
      },
      "grantRole(bytes32,address)": {
        "details": "Grants `role` to `account`. If `account` had not been already granted `role`, emits a {RoleGranted} event. Requirements: - the caller must have ``role``'s admin role. May emit a {RoleGranted} event."
      },
      "hasRole(bytes32,address)": {
        "details": "Returns `true` if `account` has been granted `role`."
      },
      "profileActivity(address)": {
        "params": {
          "player": "The player address"
        },
        "returns": {
          "_0": "The activity profile struct"
        }
      },
      "recordActivity(address,bytes32)": {
        "params": {
          "player": "The player address",
          "requestId": "Unique request ID for replay protection"
        }
      },
      "renounceRole(bytes32,address)": {
        "details": "Revokes `role` from the calling account. Roles are often managed via {grantRole} and {revokeRole}: this function's purpose is to provide a mechanism for accounts to lose their privileges if they are compromised (such as when a trusted device is misplaced). If the calling account had been revoked `role`, emits a {RoleRevoked} event. Requirements: - the caller must be `callerConfirmation`. May emit a {RoleRevoked} event."
      },
      "resetStreak(address)": {
        "params": {
          "player": "The player address"
        }
      },
      "revokeRole(bytes32,address)": {
        "details": "Revokes `role` from `account`. If `account` had been granted `role`, emits a {RoleRevoked} event. Requirements: - the caller must have ``role``'s admin role. May emit a {RoleRevoked} event."
      },
      "supportsInterface(bytes4)": {
        "details": "Returns true if this contract implements the interface defined by `interfaceId`. See the corresponding https://eips.ethereum.org/EIPS/eip-165#how-interfaces-are-identified[ERC section] to learn more about how these ids are created. This function call must use less than 30 000 gas."
      }
    },
    "title": "ActivityRegistry",
    "version": 1
  },
  "userdoc": {
    "kind": "user",
    "methods": {
      "activityProfiles(address)": {
        "notice": "Mapping of player address to activity profile"
      },
      "activityStatistics()": {
        "notice": "Returns aggregated activity statistics"
      },
      "activityStats()": {
        "notice": "Aggregated activity statistics"
      },
      "constructor": {
        "notice": "Initializes the ActivityRegistry"
      },
      "processedRequestIds(bytes32)": {
        "notice": "Mapping of request ID to processed status for replay protection"
      },
      "profileActivity(address)": {
        "notice": "Returns a player's activity profile"
      },
      "recordActivity(address,bytes32)": {
        "notice": "Records activity for a player and updates streak"
      },
      "resetStreak(address)": {
        "notice": "Resets a player's streak to zero"
      }
    },
    "notice": "Minimal on-chain activity history with streak tracking",
    "version": 1
  },
  "storageLayout": {
    "storage": [
      {
        "astId": 26,
        "contract": "contracts/ActivityRegistry.sol:ActivityRegistry",
        "label": "_roles",
        "offset": 0,
        "slot": "0",
        "type": "t_mapping(t_bytes32,t_struct(RoleData)21_storage)"
      },
      {
        "astId": 2116,
        "contract": "contracts/ActivityRegistry.sol:ActivityRegistry",
        "label": "activityProfiles",
        "offset": 0,
        "slot": "1",
        "type": "t_mapping(t_address,t_struct(ActivityProfile)4566_storage)"
      },
      {
        "astId": 2121,
        "contract": "contracts/ActivityRegistry.sol:ActivityRegistry",
        "label": "processedRequestIds",
        "offset": 0,
        "slot": "2",
        "type": "t_mapping(t_bytes32,t_bool)"
      },
      {
        "astId": 2125,
        "contract": "contracts/ActivityRegistry.sol:ActivityRegistry",
        "label": "activityStats",
        "offset": 0,
        "slot": "3",
        "type": "t_struct(ActivityStatistics)4572_storage"
      }
    ],
    "types": {
      "t_address": {
        "encoding": "inplace",
        "label": "address",
        "numberOfBytes": "20"
      },
      "t_bool": {
        "encoding": "inplace",
        "label": "bool",
        "numberOfBytes": "1"
      },
      "t_bytes32": {
        "encoding": "inplace",
        "label": "bytes32",
        "numberOfBytes": "32"
      },
      "t_mapping(t_address,t_bool)": {
        "encoding": "mapping",
        "key": "t_address",
        "label": "mapping(address => bool)",
        "numberOfBytes": "32",
        "value": "t_bool"
      },
      "t_mapping(t_address,t_struct(ActivityProfile)4566_storage)": {
        "encoding": "mapping",
        "key": "t_address",
        "label": "mapping(address => struct IActivityRegistry.ActivityProfile)",
        "numberOfBytes": "32",
        "value": "t_struct(ActivityProfile)4566_storage"
      },
      "t_mapping(t_bytes32,t_bool)": {
        "encoding": "mapping",
        "key": "t_bytes32",
        "label": "mapping(bytes32 => bool)",
        "numberOfBytes": "32",
        "value": "t_bool"
      },
      "t_mapping(t_bytes32,t_struct(RoleData)21_storage)": {
        "encoding": "mapping",
        "key": "t_bytes32",
        "label": "mapping(bytes32 => struct AccessControl.RoleData)",
        "numberOfBytes": "32",
        "value": "t_struct(RoleData)21_storage"
      },
      "t_struct(ActivityProfile)4566_storage": {
        "encoding": "inplace",
        "label": "struct IActivityRegistry.ActivityProfile",
        "members": [
          {
            "astId": 4559,
            "contract": "contracts/ActivityRegistry.sol:ActivityRegistry",
            "label": "lastActivityTimestamp",
            "offset": 0,
            "slot": "0",
            "type": "t_uint64"
          },
          {
            "astId": 4561,
            "contract": "contracts/ActivityRegistry.sol:ActivityRegistry",
            "label": "activityCount",
            "offset": 8,
            "slot": "0",
            "type": "t_uint64"
          },
          {
            "astId": 4563,
            "contract": "contracts/ActivityRegistry.sol:ActivityRegistry",
            "label": "currentStreak",
            "offset": 16,
            "slot": "0",
            "type": "t_uint64"
          },
          {
            "astId": 4565,
            "contract": "contracts/ActivityRegistry.sol:ActivityRegistry",
            "label": "longestStreak",
            "offset": 24,
            "slot": "0",
            "type": "t_uint64"
          }
        ],
        "numberOfBytes": "32"
      },
      "t_struct(ActivityStatistics)4572_storage": {
        "encoding": "inplace",
        "label": "struct IActivityRegistry.ActivityStatistics",
        "members": [
          {
            "astId": 4569,
            "contract": "contracts/ActivityRegistry.sol:ActivityRegistry",
            "label": "totalActivities",
            "offset": 0,
            "slot": "0",
            "type": "t_uint256"
          },
          {
            "astId": 4571,
            "contract": "contracts/ActivityRegistry.sol:ActivityRegistry",
            "label": "totalUniquePlayers",
            "offset": 0,
            "slot": "1",
            "type": "t_uint256"
          }
        ],
        "numberOfBytes": "64"
      },
      "t_struct(RoleData)21_storage": {
        "encoding": "inplace",
        "label": "struct AccessControl.RoleData",
        "members": [
          {
            "astId": 18,
            "contract": "contracts/ActivityRegistry.sol:ActivityRegistry",
            "label": "hasRole",
            "offset": 0,
            "slot": "0",
            "type": "t_mapping(t_address,t_bool)"
          },
          {
            "astId": 20,
            "contract": "contracts/ActivityRegistry.sol:ActivityRegistry",
            "label": "adminRole",
            "offset": 0,
            "slot": "1",
            "type": "t_bytes32"
          }
        ],
        "numberOfBytes": "64"
      },
      "t_uint256": {
        "encoding": "inplace",
        "label": "uint256",
        "numberOfBytes": "32"
      },
      "t_uint64": {
        "encoding": "inplace",
        "label": "uint64",
        "numberOfBytes": "8"
      }
    }
  }
}