{
  "address": "0x3073792CB872D5194a35777beF82561ad4C07300",
  "abi": [
    {
      "inputs": [
        {
          "internalType": "address",
          "name": "_nativeAsset",
          "type": "address"
        }
      ],
      "stateMutability": "nonpayable",
      "type": "constructor"
    },
    {
      "inputs": [],
      "name": "AccessControlBadConfirmation",
      "type": "error"
    },
    {
      "inputs": [
        {
          "internalType": "address",
          "name": "account",
          "type": "address"
        },
        {
          "internalType": "bytes32",
          "name": "neededRole",
          "type": "bytes32"
        }
      ],
      "name": "AccessControlUnauthorizedAccount",
      "type": "error"
    },
    {
      "inputs": [],
      "name": "AssetAlreadyExists",
      "type": "error"
    },
    {
      "inputs": [],
      "name": "AssetDisabled",
      "type": "error"
    },
    {
      "inputs": [],
      "name": "AssetNotFound",
      "type": "error"
    },
    {
      "inputs": [],
      "name": "DuplicateRequestId",
      "type": "error"
    },
    {
      "inputs": [],
      "name": "EnforcedPause",
      "type": "error"
    },
    {
      "inputs": [],
      "name": "ExpectedPause",
      "type": "error"
    },
    {
      "inputs": [],
      "name": "InsufficientBalance",
      "type": "error"
    },
    {
      "inputs": [],
      "name": "InvalidAddress",
      "type": "error"
    },
    {
      "inputs": [],
      "name": "InvalidAmount",
      "type": "error"
    },
    {
      "inputs": [],
      "name": "NativeTransferFailed",
      "type": "error"
    },
    {
      "inputs": [],
      "name": "ReentrancyGuardReentrantCall",
      "type": "error"
    },
    {
      "inputs": [
        {
          "internalType": "address",
          "name": "token",
          "type": "address"
        }
      ],
      "name": "SafeERC20FailedOperation",
      "type": "error"
    },
    {
      "inputs": [],
      "name": "UnsupportedAsset",
      "type": "error"
    },
    {
      "anonymous": false,
      "inputs": [
        {
          "indexed": true,
          "internalType": "address",
          "name": "asset",
          "type": "address"
        },
        {
          "indexed": false,
          "internalType": "string",
          "name": "symbol",
          "type": "string"
        }
      ],
      "name": "AssetDisabled",
      "type": "event"
    },
    {
      "anonymous": false,
      "inputs": [
        {
          "indexed": true,
          "internalType": "address",
          "name": "asset",
          "type": "address"
        },
        {
          "indexed": false,
          "internalType": "string",
          "name": "symbol",
          "type": "string"
        }
      ],
      "name": "AssetEnabled",
      "type": "event"
    },
    {
      "anonymous": false,
      "inputs": [
        {
          "indexed": false,
          "internalType": "address",
          "name": "account",
          "type": "address"
        }
      ],
      "name": "Paused",
      "type": "event"
    },
    {
      "anonymous": false,
      "inputs": [],
      "name": "Paused",
      "type": "event"
    },
    {
      "anonymous": false,
      "inputs": [
        {
          "indexed": true,
          "internalType": "address",
          "name": "recipient",
          "type": "address"
        },
        {
          "indexed": true,
          "internalType": "address",
          "name": "asset",
          "type": "address"
        },
        {
          "indexed": false,
          "internalType": "uint256",
          "name": "amount",
          "type": "uint256"
        },
        {
          "indexed": true,
          "internalType": "bytes32",
          "name": "requestId",
          "type": "bytes32"
        },
        {
          "indexed": false,
          "internalType": "uint256",
          "name": "timestamp",
          "type": "uint256"
        }
      ],
      "name": "RewardPaid",
      "type": "event"
    },
    {
      "anonymous": false,
      "inputs": [
        {
          "indexed": true,
          "internalType": "bytes32",
          "name": "role",
          "type": "bytes32"
        },
        {
          "indexed": true,
          "internalType": "bytes32",
          "name": "previousAdminRole",
          "type": "bytes32"
        },
        {
          "indexed": true,
          "internalType": "bytes32",
          "name": "newAdminRole",
          "type": "bytes32"
        }
      ],
      "name": "RoleAdminChanged",
      "type": "event"
    },
    {
      "anonymous": false,
      "inputs": [
        {
          "indexed": true,
          "internalType": "bytes32",
          "name": "role",
          "type": "bytes32"
        },
        {
          "indexed": true,
          "internalType": "address",
          "name": "account",
          "type": "address"
        },
        {
          "indexed": true,
          "internalType": "address",
          "name": "sender",
          "type": "address"
        }
      ],
      "name": "RoleGranted",
      "type": "event"
    },
    {
      "anonymous": false,
      "inputs": [
        {
          "indexed": true,
          "internalType": "bytes32",
          "name": "role",
          "type": "bytes32"
        },
        {
          "indexed": true,
          "internalType": "address",
          "name": "account",
          "type": "address"
        },
        {
          "indexed": true,
          "internalType": "address",
          "name": "sender",
          "type": "address"
        }
      ],
      "name": "RoleRevoked",
      "type": "event"
    },
    {
      "anonymous": false,
      "inputs": [
        {
          "indexed": true,
          "internalType": "address",
          "name": "asset",
          "type": "address"
        },
        {
          "indexed": false,
          "internalType": "uint256",
          "name": "amount",
          "type": "uint256"
        },
        {
          "indexed": false,
          "internalType": "uint256",
          "name": "timestamp",
          "type": "uint256"
        }
      ],
      "name": "TreasuryDeposit",
      "type": "event"
    },
    {
      "anonymous": false,
      "inputs": [
        {
          "indexed": true,
          "internalType": "address",
          "name": "asset",
          "type": "address"
        },
        {
          "indexed": false,
          "internalType": "uint256",
          "name": "amount",
          "type": "uint256"
        },
        {
          "indexed": true,
          "internalType": "address",
          "name": "to",
          "type": "address"
        },
        {
          "indexed": false,
          "internalType": "uint256",
          "name": "timestamp",
          "type": "uint256"
        }
      ],
      "name": "TreasuryWithdrawal",
      "type": "event"
    },
    {
      "anonymous": false,
      "inputs": [
        {
          "indexed": false,
          "internalType": "address",
          "name": "account",
          "type": "address"
        }
      ],
      "name": "Unpaused",
      "type": "event"
    },
    {
      "anonymous": false,
      "inputs": [],
      "name": "Unpaused",
      "type": "event"
    },
    {
      "inputs": [],
      "name": "DEFAULT_ADMIN_ROLE",
      "outputs": [
        {
          "internalType": "bytes32",
          "name": "",
          "type": "bytes32"
        }
      ],
      "stateMutability": "view",
      "type": "function"
    },
    {
      "inputs": [],
      "name": "PAUSER_ROLE",
      "outputs": [
        {
          "internalType": "bytes32",
          "name": "",
          "type": "bytes32"
        }
      ],
      "stateMutability": "view",
      "type": "function"
    },
    {
      "inputs": [],
      "name": "REWARD_MANAGER_ROLE",
      "outputs": [
        {
          "internalType": "bytes32",
          "name": "",
          "type": "bytes32"
        }
      ],
      "stateMutability": "view",
      "type": "function"
    },
    {
      "inputs": [],
      "name": "TREASURY_MANAGER_ROLE",
      "outputs": [
        {
          "internalType": "bytes32",
          "name": "",
          "type": "bytes32"
        }
      ],
      "stateMutability": "view",
      "type": "function"
    },
    {
      "inputs": [
        {
          "internalType": "address",
          "name": "asset",
          "type": "address"
        }
      ],
      "name": "assetBalance",
      "outputs": [
        {
          "internalType": "uint256",
          "name": "",
          "type": "uint256"
        }
      ],
      "stateMutability": "view",
      "type": "function"
    },
    {
      "inputs": [
        {
          "internalType": "address",
          "name": "asset",
          "type": "address"
        }
      ],
      "name": "assetStatistics",
      "outputs": [
        {
          "components": [
            {
              "internalType": "uint256",
              "name": "totalDeposited",
              "type": "uint256"
            },
            {
              "internalType": "uint256",
              "name": "totalPaid",
              "type": "uint256"
            },
            {
              "internalType": "uint256",
              "name": "balance",
              "type": "uint256"
            }
          ],
          "internalType": "struct IRewardTreasury.AssetStatistics",
          "name": "",
          "type": "tuple"
        }
      ],
      "stateMutability": "view",
      "type": "function"
    },
    {
      "inputs": [
        {
          "internalType": "address",
          "name": "",
          "type": "address"
        }
      ],
      "name": "assetStats",
      "outputs": [
        {
          "internalType": "uint256",
          "name": "totalDeposited",
          "type": "uint256"
        },
        {
          "internalType": "uint256",
          "name": "totalPaid",
          "type": "uint256"
        },
        {
          "internalType": "uint256",
          "name": "balance",
          "type": "uint256"
        }
      ],
      "stateMutability": "view",
      "type": "function"
    },
    {
      "inputs": [
        {
          "internalType": "address",
          "name": "",
          "type": "address"
        }
      ],
      "name": "assets",
      "outputs": [
        {
          "internalType": "address",
          "name": "assetAddress",
          "type": "address"
        },
        {
          "internalType": "string",
          "name": "symbol",
          "type": "string"
        },
        {
          "internalType": "uint8",
          "name": "decimals",
          "type": "uint8"
        },
        {
          "internalType": "bool",
          "name": "enabled",
          "type": "bool"
        }
      ],
      "stateMutability": "view",
      "type": "function"
    },
    {
      "inputs": [],
      "name": "deposit",
      "outputs": [],
      "stateMutability": "payable",
      "type": "function"
    },
    {
      "inputs": [
        {
          "internalType": "address",
          "name": "asset",
          "type": "address"
        },
        {
          "internalType": "uint256",
          "name": "amount",
          "type": "uint256"
        }
      ],
      "name": "depositERC20",
      "outputs": [],
      "stateMutability": "nonpayable",
      "type": "function"
    },
    {
      "inputs": [
        {
          "internalType": "address",
          "name": "asset",
          "type": "address"
        }
      ],
      "name": "disableAsset",
      "outputs": [],
      "stateMutability": "nonpayable",
      "type": "function"
    },
    {
      "inputs": [
        {
          "internalType": "address",
          "name": "asset",
          "type": "address"
        },
        {
          "internalType": "string",
          "name": "symbol",
          "type": "string"
        },
        {
          "internalType": "uint8",
          "name": "decimals",
          "type": "uint8"
        }
      ],
      "name": "enableAsset",
      "outputs": [],
      "stateMutability": "nonpayable",
      "type": "function"
    },
    {
      "inputs": [
        {
          "internalType": "bytes32",
          "name": "role",
          "type": "bytes32"
        }
      ],
      "name": "getRoleAdmin",
      "outputs": [
        {
          "internalType": "bytes32",
          "name": "",
          "type": "bytes32"
        }
      ],
      "stateMutability": "view",
      "type": "function"
    },
    {
      "inputs": [],
      "name": "getSupportedAssets",
      "outputs": [
        {
          "components": [
            {
              "internalType": "address",
              "name": "assetAddress",
              "type": "address"
            },
            {
              "internalType": "string",
              "name": "symbol",
              "type": "string"
            },
            {
              "internalType": "uint8",
              "name": "decimals",
              "type": "uint8"
            },
            {
              "internalType": "bool",
              "name": "enabled",
              "type": "bool"
            }
          ],
          "internalType": "struct IRewardTreasury.AssetInfo[]",
          "name": "",
          "type": "tuple[]"
        }
      ],
      "stateMutability": "view",
      "type": "function"
    },
    {
      "inputs": [
        {
          "internalType": "bytes32",
          "name": "role",
          "type": "bytes32"
        },
        {
          "internalType": "address",
          "name": "account",
          "type": "address"
        }
      ],
      "name": "grantRole",
      "outputs": [],
      "stateMutability": "nonpayable",
      "type": "function"
    },
    {
      "inputs": [
        {
          "internalType": "bytes32",
          "name": "role",
          "type": "bytes32"
        },
        {
          "internalType": "address",
          "name": "account",
          "type": "address"
        }
      ],
      "name": "hasRole",
      "outputs": [
        {
          "internalType": "bool",
          "name": "",
          "type": "bool"
        }
      ],
      "stateMutability": "view",
      "type": "function"
    },
    {
      "inputs": [
        {
          "internalType": "address",
          "name": "asset",
          "type": "address"
        }
      ],
      "name": "isSupportedAsset",
      "outputs": [
        {
          "internalType": "bool",
          "name": "",
          "type": "bool"
        }
      ],
      "stateMutability": "view",
      "type": "function"
    },
    {
      "inputs": [],
      "name": "nativeAsset",
      "outputs": [
        {
          "internalType": "address",
          "name": "",
          "type": "address"
        }
      ],
      "stateMutability": "view",
      "type": "function"
    },
    {
      "inputs": [],
      "name": "pause",
      "outputs": [],
      "stateMutability": "nonpayable",
      "type": "function"
    },
    {
      "inputs": [],
      "name": "paused",
      "outputs": [
        {
          "internalType": "bool",
          "name": "",
          "type": "bool"
        }
      ],
      "stateMutability": "view",
      "type": "function"
    },
    {
      "inputs": [
        {
          "internalType": "address",
          "name": "recipient",
          "type": "address"
        },
        {
          "internalType": "address",
          "name": "asset",
          "type": "address"
        },
        {
          "internalType": "uint256",
          "name": "amount",
          "type": "uint256"
        },
        {
          "internalType": "bytes32",
          "name": "requestId",
          "type": "bytes32"
        }
      ],
      "name": "payout",
      "outputs": [],
      "stateMutability": "nonpayable",
      "type": "function"
    },
    {
      "inputs": [
        {
          "internalType": "bytes32",
          "name": "role",
          "type": "bytes32"
        },
        {
          "internalType": "address",
          "name": "callerConfirmation",
          "type": "address"
        }
      ],
      "name": "renounceRole",
      "outputs": [],
      "stateMutability": "nonpayable",
      "type": "function"
    },
    {
      "inputs": [
        {
          "internalType": "bytes32",
          "name": "role",
          "type": "bytes32"
        },
        {
          "internalType": "address",
          "name": "account",
          "type": "address"
        }
      ],
      "name": "revokeRole",
      "outputs": [],
      "stateMutability": "nonpayable",
      "type": "function"
    },
    {
      "inputs": [
        {
          "internalType": "uint256",
          "name": "",
          "type": "uint256"
        }
      ],
      "name": "supportedAssetList",
      "outputs": [
        {
          "internalType": "address",
          "name": "",
          "type": "address"
        }
      ],
      "stateMutability": "view",
      "type": "function"
    },
    {
      "inputs": [
        {
          "internalType": "bytes4",
          "name": "interfaceId",
          "type": "bytes4"
        }
      ],
      "name": "supportsInterface",
      "outputs": [
        {
          "internalType": "bool",
          "name": "",
          "type": "bool"
        }
      ],
      "stateMutability": "view",
      "type": "function"
    },
    {
      "inputs": [],
      "name": "treasuryBalance",
      "outputs": [
        {
          "internalType": "uint256",
          "name": "",
          "type": "uint256"
        }
      ],
      "stateMutability": "view",
      "type": "function"
    },
    {
      "inputs": [],
      "name": "treasuryStatistics",
      "outputs": [
        {
          "components": [
            {
              "internalType": "uint256",
              "name": "totalDeposits",
              "type": "uint256"
            },
            {
              "internalType": "uint256",
              "name": "totalRewards",
              "type": "uint256"
            },
            {
              "internalType": "uint256",
              "name": "totalWithdrawals",
              "type": "uint256"
            },
            {
              "internalType": "uint256",
              "name": "rewardCount",
              "type": "uint256"
            },
            {
              "internalType": "uint256",
              "name": "largestReward",
              "type": "uint256"
            }
          ],
          "internalType": "struct IRewardTreasury.TreasuryStatistics",
          "name": "",
          "type": "tuple"
        }
      ],
      "stateMutability": "view",
      "type": "function"
    },
    {
      "inputs": [],
      "name": "treasuryStats",
      "outputs": [
        {
          "internalType": "uint256",
          "name": "totalDeposits",
          "type": "uint256"
        },
        {
          "internalType": "uint256",
          "name": "totalRewards",
          "type": "uint256"
        },
        {
          "internalType": "uint256",
          "name": "totalWithdrawals",
          "type": "uint256"
        },
        {
          "internalType": "uint256",
          "name": "rewardCount",
          "type": "uint256"
        },
        {
          "internalType": "uint256",
          "name": "largestReward",
          "type": "uint256"
        }
      ],
      "stateMutability": "view",
      "type": "function"
    },
    {
      "inputs": [],
      "name": "unpause",
      "outputs": [],
      "stateMutability": "nonpayable",
      "type": "function"
    },
    {
      "inputs": [
        {
          "internalType": "address",
          "name": "asset",
          "type": "address"
        },
        {
          "internalType": "address",
          "name": "to",
          "type": "address"
        },
        {
          "internalType": "uint256",
          "name": "amount",
          "type": "uint256"
        }
      ],
      "name": "withdraw",
      "outputs": [],
      "stateMutability": "nonpayable",
      "type": "function"
    },
    {
      "stateMutability": "payable",
      "type": "receive"
    }
  ],
  "transactionHash": "0x4ef4fcefda3fde59d3b119c061024c8fab83739e50a2d2348faeee722de6f35a",
  "args": [
    "0x0000000000000000000000000000000000000000"
  ],
  "numDeployments": 1,
  "solcInputHash": "efff8684b17874e72892a7d6ab8a4eb4",
  "bytecode": "0x60a060405234801561000f575f5ffd5b506040516124a53803806124a583398101604081905261002e916102a1565b60017f9b779b17422d0df92223018b32b4d1fa46e071723d6817e2486d003becc55f00556001600160a01b0381166080526100695f336101f8565b506100947fede9dcdb0ce99dc7cec9c7be9246ad08b37853683ad91569c187b647ddf5e21c336101f8565b506100bf7f0f51adb3f49e4a9bbb17b3783f025995eaf8c24be2c8eefff214bdfda05ef94d336101f8565b506100ea7f65d7a28e3265b37a6474929f336521b332c1681b933f6cb9f3376673440d862a336101f8565b50604080516080808201835280516001600160a01b03908116835283518085018552600481526343454c4f60e01b602080830191909152808501918252601285870152600160608601819052935183165f908152600290915294909420835181546001600160a01b03191692169190911781559251919291908201906101709082610366565b5060408201516002909101805460609093015115156101000261ffff1990931660ff9092169190911791909117905550608051600380546001810182555f919091527fc2575a0e9e593c00f959f8c92f12db2869c3395a3b0502d05e2516446f71f85b0180546001600160a01b039092166001600160a01b0319909216919091179055610420565b5f828152602081815260408083206001600160a01b038516845290915281205460ff16610298575f838152602081815260408083206001600160a01b03861684529091529020805460ff191660011790556102503390565b6001600160a01b0316826001600160a01b0316847f2f8788117e7eff1d82e926ec794901d17c78024a50270940304540a733656f0d60405160405180910390a450600161029b565b505f5b92915050565b5f602082840312156102b1575f5ffd5b81516001600160a01b03811681146102c7575f5ffd5b9392505050565b634e487b7160e01b5f52604160045260245ffd5b600181811c908216806102f657607f821691505b60208210810361031457634e487b7160e01b5f52602260045260245ffd5b50919050565b601f82111561036157805f5260205f20601f840160051c8101602085101561033f5750805b601f840160051c820191505b8181101561035e575f815560010161034b565b50505b505050565b81516001600160401b0381111561037f5761037f6102ce565b6103938161038d84546102e2565b8461031a565b6020601f8211600181146103c5575f83156103ae5750848201515b5f19600385901b1c1916600184901b17845561035e565b5f84815260208120601f198516915b828110156103f457878501518255602094850194600190920191016103d4565b508482101561041157868401515f19600387901b60f8161c191681555b50505050600190811b01905550565b6080516120436104625f395f8181610315015281816104850152818161072301528181610e8b0152818161109e015281816115a8015261181301526120435ff3fe6080604052600436106101c8575f3560e01c806391d14854116100f2578063d547741f11610092578063e63ab1e911610062578063e63ab1e914610647578063ebdf690f1461067a578063f11b8188146106ad578063fbd15a3c146106dc575f5ffd5b8063d547741f14610593578063d632a5f6146105b2578063d9caed1214610607578063e5406dbf14610626575f5ffd5b80639be918e6116100cd5780639be918e61461053a578063a217fddf14610559578063cd88e5581461056c578063d0e30db01461058b575f5ffd5b806391d14854146104bb57806397feb926146104da57806398345f47146104f9575f5ffd5b80633f4ba83a116101685780636d750d80116101385780636d750d8014610422578063708075281461045557806374d32ad4146104745780638456cb59146104a7575f5ffd5b80633f4ba83a146103725780635c975abb14610386578063616769541461039d5780636c8d179a146103eb575f5ffd5b8063248a9ca3116101a3578063248a9ca3146102ac5780632f2ff15d146102e8578063313dab201461030757806336568abe14610353575f5ffd5b806301a76d3f1461020457806301ffc9a71461025e5780630f1ece3d1461028d575f5ffd5b36610200576101d56106fb565b345f036101f55760405163162908e360e11b815260040160405180910390fd5b6101fe34610721565b005b5f5ffd5b34801561020f575f5ffd5b5061023e61021e366004611adc565b60046020525f908152604090208054600182015460029092015490919083565b604080519384526020840192909252908201526060015b60405180910390f35b348015610269575f5ffd5b5061027d610278366004611afc565b6107f7565b6040519015158152602001610255565b348015610298575f5ffd5b506101fe6102a7366004611b23565b61082d565b3480156102b7575f5ffd5b506102da6102c6366004611bb9565b5f9081526020819052604090206001015490565b604051908152602001610255565b3480156102f3575f5ffd5b506101fe610302366004611bd0565b6109f8565b348015610312575f5ffd5b507f00000000000000000000000000000000000000000000000000000000000000006001600160a01b03165f908152600460205260409020600201546102da565b34801561035e575f5ffd5b506101fe61036d366004611bd0565b610a22565b34801561037d575f5ffd5b506101fe610a5a565b348015610391575f5ffd5b5060015460ff1661027d565b3480156103a8575f5ffd5b50600654600754600854600954600a546103c3949392919085565b604080519586526020860194909452928401919091526060830152608082015260a001610255565b3480156103f6575f5ffd5b5061040a610405366004611bb9565b610ab7565b6040516001600160a01b039091168152602001610255565b34801561042d575f5ffd5b506102da7f0f51adb3f49e4a9bbb17b3783f025995eaf8c24be2c8eefff214bdfda05ef94d81565b348015610460575f5ffd5b506101fe61046f366004611adc565b610adf565b34801561047f575f5ffd5b5061040a7f000000000000000000000000000000000000000000000000000000000000000081565b3480156104b2575f5ffd5b506101fe610b86565b3480156104c6575f5ffd5b5061027d6104d5366004611bd0565b610be3565b3480156104e5575f5ffd5b506101fe6104f4366004611bfa565b610c0b565b348015610504575f5ffd5b50610518610513366004611adc565b610d89565b6040805182518152602080840151908201529181015190820152606001610255565b348015610545575f5ffd5b5061027d610554366004611adc565b610e11565b348015610564575f5ffd5b506102da5f81565b348015610577575f5ffd5b506102da610586366004611adc565b610e1b565b6101fe610e60565b34801561059e575f5ffd5b506101fe6105ad366004611bd0565b610ef8565b3480156105bd575f5ffd5b506105c6610f1c565b60405161025591905f60a082019050825182526020830151602083015260408301516040830152606083015160608301526080830151608083015292915050565b348015610612575f5ffd5b506101fe610621366004611c22565b610f7e565b348015610631575f5ffd5b5061063a611156565b6040516102559190611c8a565b348015610652575f5ffd5b506102da7f65d7a28e3265b37a6474929f336521b332c1681b933f6cb9f3376673440d862a81565b348015610685575f5ffd5b506102da7fede9dcdb0ce99dc7cec9c7be9246ad08b37853683ad91569c187b647ddf5e21c81565b3480156106b8575f5ffd5b506106cc6106c7366004611adc565b611306565b6040516102559493929190611d28565b3480156106e7575f5ffd5b506101fe6106f6366004611d66565b6113c4565b60015460ff161561071f5760405163d93c066560e01b815260040160405180910390fd5b565b7f00000000000000000000000000000000000000000000000000000000000000006001600160a01b0381165f90815260046020526040812080549091849183919061076d908490611db9565b9250508190555082816002015f8282546107879190611db9565b9091555050600680548491905f906107a0908490611db9565b90915550506040805184815267ffffffffffffffff421660208201526001600160a01b038416917fb68e8301ad7468a283824a6592dd711e09b95af56caa96757e636a4a8588bf29910160405180910390a2505050565b5f6001600160e01b03198216637965db0b60e01b148061082757506301ffc9a760e01b6001600160e01b03198316145b92915050565b5f6108378161167e565b6001600160a01b03851661085e5760405163e6c4247b60e01b815260040160405180910390fd5b6001600160a01b038581165f9081526002602052604090205416156108965760405163dc0d0aab60e01b815260040160405180910390fd5b6040518060800160405280866001600160a01b0316815260200185858080601f0160208091040260200160405190810160405280939291908181526020018383808284375f92018290525093855250505060ff8516602080840191909152600160409384018190526001600160a01b038a811684526002835293909220845181546001600160a01b03191694169390931783558301519082019061093a9082611e56565b506040828101516002909201805460609094015115156101000261ffff1990941660ff90931692909217929092179055600380546001810182555f919091527fc2575a0e9e593c00f959f8c92f12db2869c3395a3b0502d05e2516446f71f85b0180546001600160a01b0388166001600160a01b0319909116811790915590517f43fafb528d67fc607f4f8bc54d2e2090a929188f430514167dd334529c8b116e906109e99087908790611f11565b60405180910390a25050505050565b5f82815260208190526040902060010154610a128161167e565b610a1c838361168b565b50505050565b6001600160a01b0381163314610a4b5760405163334bd91960e11b815260040160405180910390fd5b610a55828261171a565b505050565b7f65d7a28e3265b37a6474929f336521b332c1681b933f6cb9f3376673440d862a610a848161167e565b610a8c611783565b6040517fa45f47fdea8a1efdd9029a5691c7f759c32b7c698632b563573e155625d16933905f90a150565b60038181548110610ac6575f80fd5b5f918252602090912001546001600160a01b0316905081565b5f610ae98161167e565b6001600160a01b038281165f9081526002602052604090205416610b205760405163470cbf4760e01b815260040160405180910390fd5b6001600160a01b0382165f81815260026020819052604091829020908101805461ff001916905590517f121ab36021137e799bb16e993cae9712507fa5afb9daeb15db1d544a5a06d35291610b7a91600190910190611f3f565b60405180910390a25050565b7f65d7a28e3265b37a6474929f336521b332c1681b933f6cb9f3376673440d862a610bb08161167e565b610bb86117d5565b6040517f9e87fac88ff661f02d44f95383c817fece4bce600a3dab7a54406878b965e752905f90a150565b5f918252602082815260408084206001600160a01b0393909316845291905290205460ff1690565b610c136106fb565b80805f03610c345760405163162908e360e11b815260040160405180910390fd5b82610c3e81611810565b610c5b57604051630928045160e21b815260040160405180910390fd5b6001600160a01b0384165f90815260026020819052604090912001548490610100900460ff16610c9e57604051637c2df00960e11b815260040160405180910390fd5b610ca661186c565b610cbb6001600160a01b038616333087611887565b6001600160a01b0385165f908152600460205260408120805490918691839190610ce6908490611db9565b9250508190555084816002015f828254610d009190611db9565b9091555050600680548691905f90610d19908490611db9565b90915550506040805186815267ffffffffffffffff421660208201526001600160a01b038816917fb68e8301ad7468a283824a6592dd711e09b95af56caa96757e636a4a8588bf29910160405180910390a250610d8260015f516020611fee5f395f51905f5255565b5050505050565b610daa60405180606001604052805f81526020015f81526020015f81525090565b610db382611810565b610dd057604051630928045160e21b815260040160405180910390fd5b506001600160a01b03165f90815260046020908152604091829020825160608101845281548152600182015492810192909252600201549181019190915290565b5f61082782611810565b5f610e2582611810565b610e4257604051630928045160e21b815260040160405180910390fd5b506001600160a01b03165f9081526004602052604090206002015490565b610e686106fb565b34805f03610e895760405163162908e360e11b815260040160405180910390fd5b7f00000000000000000000000000000000000000000000000000000000000000006001600160a01b0381165f9081526002602081905260409091200154610100900460ff16610eeb57604051637c2df00960e11b815260040160405180910390fd5b610ef434610721565b5050565b5f82815260208190526040902060010154610f128161167e565b610a1c838361171a565b610f496040518060a001604052805f81526020015f81526020015f81526020015f81526020015f81525090565b506040805160a08101825260065481526007546020820152600854918101919091526009546060820152600a54608082015290565b610f866106fb565b610f8e61186c565b7fede9dcdb0ce99dc7cec9c7be9246ad08b37853683ad91569c187b647ddf5e21c610fb88161167e565b83610fc281611810565b610fdf57604051630928045160e21b815260040160405180910390fd5b82805f036110005760405163162908e360e11b815260040160405180910390fd5b6001600160a01b0385166110275760405163e6c4247b60e01b815260040160405180910390fd5b6001600160a01b0386165f908152600460205260409020600281015485111561106357604051631e9acf1760e31b815260040160405180910390fd5b84816002015f8282546110769190611fc6565b9091555050600880548691905f9061108f908490611db9565b90915550506001600160a01b037f00000000000000000000000000000000000000000000000000000000000000008116908816036110d6576110d186866118c2565b6110ea565b6110ea6001600160a01b0388168787611932565b6040805186815267ffffffffffffffff421660208201526001600160a01b0380891692908a16917fbeac931cc17d12002dee936e693414bb87e4771b6b15e738fac1ab7fa7b17e51910160405180910390a350505050610a5560015f516020611fee5f395f51905f5255565b6003546060905f9067ffffffffffffffff81111561117657611176611dcc565b6040519080825280602002602001820160405280156111c657816020015b604080516080810182525f8082526060602080840182905293830182905282015282525f199092019101816111945790505b5090505f5b6003548110156113005760025f600383815481106111eb576111eb611fd9565b5f9182526020808320909101546001600160a01b039081168452838201949094526040928301909120825160808101909352805490931682526001830180549293929184019161123a90611de0565b80601f016020809104026020016040519081016040528092919081815260200182805461126690611de0565b80156112b15780601f10611288576101008083540402835291602001916112b1565b820191905f5260205f20905b81548152906001019060200180831161129457829003601f168201915b50505091835250506002919091015460ff808216602084015261010090910416151560409091015282518390839081106112ed576112ed611fd9565b60209081029190910101526001016111cb565b50919050565b60026020525f9081526040902080546001820180546001600160a01b03909216929161133190611de0565b80601f016020809104026020016040519081016040528092919081815260200182805461135d90611de0565b80156113a85780601f1061137f576101008083540402835291602001916113a8565b820191905f5260205f20905b81548152906001019060200180831161138b57829003601f168201915b5050506002909301549192505060ff8082169161010090041684565b6113cc6106fb565b6113d461186c565b7f0f51adb3f49e4a9bbb17b3783f025995eaf8c24be2c8eefff214bdfda05ef94d6113fe8161167e565b8361140881611810565b61142557604051630928045160e21b815260040160405180910390fd5b6001600160a01b0385165f90815260026020819052604090912001548590610100900460ff1661146857604051637c2df00960e11b815260040160405180910390fd5b84805f036114895760405163162908e360e11b815260040160405180910390fd5b6001600160a01b0388166114b05760405163e6c4247b60e01b815260040160405180910390fd5b5f8581526005602052604090205460ff16156114de5760405162c7e13f60e61b815260040160405180910390fd5b5f858152600560209081526040808320805460ff191660011790556001600160a01b038a16835260049091529020600281015487111561153157604051631e9acf1760e31b815260040160405180910390fd5b86816002015f8282546115449190611fc6565b9250508190555086816001015f82825461155e9190611db9565b9091555050600780548891905f90611577908490611db9565b909155505060098054600191905f90611591908490611db9565b9091555050600a548711156115a657600a8790555b7f00000000000000000000000000000000000000000000000000000000000000006001600160a01b0316886001600160a01b0316036115ee576115e989886118c2565b611602565b6116026001600160a01b0389168a89611932565b85886001600160a01b03168a6001600160a01b03167fa455e1b0421e3ed16467ca2f02b8f414ff14f1ec63be17b7abb15dde455a94648a4260405161165b92919091825267ffffffffffffffff16602082015260400190565b60405180910390a45050505050610a1c60015f516020611fee5f395f51905f5255565b6116888133611967565b50565b5f6116968383610be3565b611713575f838152602081815260408083206001600160a01b03861684529091529020805460ff191660011790556116cb3390565b6001600160a01b0316826001600160a01b0316847f2f8788117e7eff1d82e926ec794901d17c78024a50270940304540a733656f0d60405160405180910390a4506001610827565b505f610827565b5f6117258383610be3565b15611713575f838152602081815260408083206001600160a01b0386168085529252808320805460ff1916905551339286917ff6391f5c32d9c69d2a47ea670b442974b53935d1edc7fd64eb21e047a839171b9190a4506001610827565b61178b6119a0565b6001805460ff191690557f5db9ee0a495bf2e6ff9c91a7834c1ba4fdd244a5e8aa4e537bd38aeae4b073aa335b6040516001600160a01b03909116815260200160405180910390a1565b6117dd6106fb565b6001805460ff1916811790557f62e78cea01bee320cd4e420270b5ea74000d11b0c9f74754ebdbfc544b05a258336117b8565b5f7f00000000000000000000000000000000000000000000000000000000000000006001600160a01b0316826001600160a01b031614806108275750506001600160a01b039081165f9081526002602052604090205416151590565b6118746119c3565b60025f516020611fee5f395f51905f5255565b6118958484848460016119f2565b610a1c57604051635274afe760e01b81526001600160a01b03851660048201526024015b60405180910390fd5b5f826001600160a01b0316826040515f6040518083038185875af1925050503d805f811461190b576040519150601f19603f3d011682016040523d82523d5f602084013e611910565b606091505b5050905080610a5557604051633d2cec6f60e21b815260040160405180910390fd5b61193f8383836001611a5f565b610a5557604051635274afe760e01b81526001600160a01b03841660048201526024016118b9565b6119718282610be3565b610ef45760405163e2517d3f60e01b81526001600160a01b0382166004820152602481018390526044016118b9565b60015460ff1661071f57604051638dfc202b60e01b815260040160405180910390fd5b5f516020611fee5f395f51905f525460020361071f57604051633ee5aeb560e01b815260040160405180910390fd5b6040516323b872dd60e01b5f8181526001600160a01b038781166004528616602452604485905291602083606481808c5af1925060015f51148316611a4e578383151615611a42573d5f823e3d81fd5b5f883b113d1516831692505b604052505f60605295945050505050565b60405163a9059cbb60e01b5f8181526001600160a01b038616600452602485905291602083604481808b5af1925060015f51148316611ab5578383151615611aa9573d5f823e3d81fd5b5f873b113d1516831692505b60405250949350505050565b80356001600160a01b0381168114611ad7575f5ffd5b919050565b5f60208284031215611aec575f5ffd5b611af582611ac1565b9392505050565b5f60208284031215611b0c575f5ffd5b81356001600160e01b031981168114611af5575f5ffd5b5f5f5f5f60608587031215611b36575f5ffd5b611b3f85611ac1565b9350602085013567ffffffffffffffff811115611b5a575f5ffd5b8501601f81018713611b6a575f5ffd5b803567ffffffffffffffff811115611b80575f5ffd5b876020828401011115611b91575f5ffd5b60209190910193509150604085013560ff81168114611bae575f5ffd5b939692955090935050565b5f60208284031215611bc9575f5ffd5b5035919050565b5f5f60408385031215611be1575f5ffd5b82359150611bf160208401611ac1565b90509250929050565b5f5f60408385031215611c0b575f5ffd5b611c1483611ac1565b946020939093013593505050565b5f5f5f60608486031215611c34575f5ffd5b611c3d84611ac1565b9250611c4b60208501611ac1565b929592945050506040919091013590565b5f81518084528060208401602086015e5f602082860101526020601f19601f83011685010191505092915050565b5f602082016020835280845180835260408501915060408160051b8601019250602086015f5b82811015611d1c57868503603f19018452815180516001600160a01b03168652602080820151608091880182905290611ceb90880182611c5c565b60408381015160ff169089015260609283015115159290970191909152506020938401939190910190600101611cb0565b50929695505050505050565b6001600160a01b03851681526080602082018190525f90611d4b90830186611c5c565b60ff9490941660408301525090151560609091015292915050565b5f5f5f5f60808587031215611d79575f5ffd5b611d8285611ac1565b9350611d9060208601611ac1565b93969395505050506040820135916060013590565b634e487b7160e01b5f52601160045260245ffd5b8082018082111561082757610827611da5565b634e487b7160e01b5f52604160045260245ffd5b600181811c90821680611df457607f821691505b60208210810361130057634e487b7160e01b5f52602260045260245ffd5b601f821115610a5557805f5260205f20601f840160051c81016020851015611e375750805b601f840160051c820191505b81811015610d82575f8155600101611e43565b815167ffffffffffffffff811115611e7057611e70611dcc565b611e8481611e7e8454611de0565b84611e12565b6020601f821160018114611eb6575f8315611e9f5750848201515b5f19600385901b1c1916600184901b178455610d82565b5f84815260208120601f198516915b82811015611ee55787850151825560209485019460019092019101611ec5565b5084821015611f0257868401515f19600387901b60f8161c191681555b50505050600190811b01905550565b60208152816020820152818360408301375f818301604090810191909152601f909201601f19160101919050565b602081525f5f8354611f5081611de0565b806020860152600182165f8114611f6e5760018114611f8a57611fbb565b60ff1983166040870152604082151560051b8701019350611fbb565b865f5260205f205f5b83811015611fb257815488820160400152600190910190602001611f93565b87016040019450505b509195945050505050565b8181038181111561082757610827611da5565b634e487b7160e01b5f52603260045260245ffdfe9b779b17422d0df92223018b32b4d1fa46e071723d6817e2486d003becc55f00a2646970667358221220bc533090c6235a8c077fdd38ea7ef98254966b2f02825b9ab29f728eacabb2db64736f6c634300081c0033",
  "devdoc": {
    "details": "Follows Checks-Effects-Interactions pattern with ReentrancyGuard and Pausable.",
    "errors": {
      "AccessControlBadConfirmation()": [
        {
          "details": "The caller of a function is not the expected one. NOTE: Don't confuse with {AccessControlUnauthorizedAccount}."
        }
      ],
      "AccessControlUnauthorizedAccount(address,bytes32)": [
        {
          "details": "The `account` is missing a role."
        }
      ],
      "EnforcedPause()": [
        {
          "details": "The operation failed because the contract is paused."
        }
      ],
      "ExpectedPause()": [
        {
          "details": "The operation failed because the contract is not paused."
        }
      ],
      "ReentrancyGuardReentrantCall()": [
        {
          "details": "Unauthorized reentrant call."
        }
      ],
      "SafeERC20FailedOperation(address)": [
        {
          "details": "An operation with an ERC-20 token failed."
        }
      ]
    },
    "events": {
      "Paused(address)": {
        "details": "Emitted when the pause is triggered by `account`."
      },
      "RoleAdminChanged(bytes32,bytes32,bytes32)": {
        "details": "Emitted when `newAdminRole` is set as ``role``'s admin role, replacing `previousAdminRole` `DEFAULT_ADMIN_ROLE` is the starting admin for all roles, despite {RoleAdminChanged} not being emitted to signal this."
      },
      "RoleGranted(bytes32,address,address)": {
        "details": "Emitted when `account` is granted `role`. `sender` is the account that originated the contract call. This account bears the admin role (for the granted role). Expected in cases where the role was granted using the internal {AccessControl-_grantRole}."
      },
      "RoleRevoked(bytes32,address,address)": {
        "details": "Emitted when `account` is revoked `role`. `sender` is the account that originated the contract call:   - if using `revokeRole`, it is the admin role bearer   - if using `renounceRole`, it is the role bearer (i.e. `account`)"
      },
      "Unpaused(address)": {
        "details": "Emitted when the pause is lifted by `account`."
      }
    },
    "kind": "dev",
    "methods": {
      "constructor": {
        "params": {
          "_nativeAsset": "The native asset address (CELO, typically address(0))"
        }
      },
      "getRoleAdmin(bytes32)": {
        "details": "Returns the admin role that controls `role`. See {grantRole} and {revokeRole}. To change a role's admin, use {_setRoleAdmin}."
      },
      "grantRole(bytes32,address)": {
        "details": "Grants `role` to `account`. If `account` had not been already granted `role`, emits a {RoleGranted} event. Requirements: - the caller must have ``role``'s admin role. May emit a {RoleGranted} event."
      },
      "hasRole(bytes32,address)": {
        "details": "Returns `true` if `account` has been granted `role`."
      },
      "paused()": {
        "details": "Returns true if the contract is paused, and false otherwise."
      },
      "renounceRole(bytes32,address)": {
        "details": "Revokes `role` from the calling account. Roles are often managed via {grantRole} and {revokeRole}: this function's purpose is to provide a mechanism for accounts to lose their privileges if they are compromised (such as when a trusted device is misplaced). If the calling account had been revoked `role`, emits a {RoleRevoked} event. Requirements: - the caller must be `callerConfirmation`. May emit a {RoleRevoked} event."
      },
      "revokeRole(bytes32,address)": {
        "details": "Revokes `role` from `account`. If `account` had been granted `role`, emits a {RoleRevoked} event. Requirements: - the caller must have ``role``'s admin role. May emit a {RoleRevoked} event."
      },
      "supportsInterface(bytes4)": {
        "details": "Returns true if this contract implements the interface defined by `interfaceId`. See the corresponding https://eips.ethereum.org/EIPS/eip-165#how-interfaces-are-identified[ERC section] to learn more about how these ids are created. This function call must use less than 30 000 gas."
      }
    },
    "title": "RewardTreasury",
    "version": 1
  },
  "userdoc": {
    "kind": "user",
    "methods": {
      "assetBalance(address)": {
        "notice": "Returns the balance of a specific asset held by the treasury"
      },
      "assetStatistics(address)": {
        "notice": "Returns statistics for a specific asset"
      },
      "assetStats(address)": {
        "notice": "Mapping of asset address to per-asset statistics"
      },
      "assets(address)": {
        "notice": "Mapping of asset address to asset info"
      },
      "constructor": {
        "notice": "Initializes the treasury with CELO as the default supported asset"
      },
      "deposit()": {
        "notice": "Deposits native asset (CELO) into the treasury"
      },
      "depositERC20(address,uint256)": {
        "notice": "Deposits ERC20 asset into the treasury"
      },
      "disableAsset(address)": {
        "notice": "Disables an asset"
      },
      "enableAsset(address,string,uint8)": {
        "notice": "Enables a new asset for deposits and payouts"
      },
      "getSupportedAssets()": {
        "notice": "Returns all supported assets"
      },
      "isSupportedAsset(address)": {
        "notice": "Checks if an asset is supported"
      },
      "nativeAsset()": {
        "notice": "Native asset address (CELO)"
      },
      "pause()": {
        "notice": "Pauses all state-changing operations"
      },
      "payout(address,address,uint256,bytes32)": {
        "notice": "Executes a reward payout to a recipient"
      },
      "supportedAssetList(uint256)": {
        "notice": "Ordered list of supported asset addresses"
      },
      "treasuryBalance()": {
        "notice": "Returns the total native asset balance held by the treasury"
      },
      "treasuryStatistics()": {
        "notice": "Returns overall treasury statistics"
      },
      "treasuryStats()": {
        "notice": "Overall treasury statistics"
      },
      "unpause()": {
        "notice": "Unpauses all state-changing operations"
      },
      "withdraw(address,address,uint256)": {
        "notice": "Withdraws assets from the treasury"
      }
    },
    "notice": "Central vault for all Vibepool reward funds. Supports CELO and ERC20 assets.",
    "version": 1
  },
  "storageLayout": {
    "storage": [
      {
        "astId": 26,
        "contract": "contracts/RewardTreasury.sol:RewardTreasury",
        "label": "_roles",
        "offset": 0,
        "slot": "0",
        "type": "t_mapping(t_bytes32,t_struct(RoleData)21_storage)"
      },
      {
        "astId": 1718,
        "contract": "contracts/RewardTreasury.sol:RewardTreasury",
        "label": "_paused",
        "offset": 0,
        "slot": "1",
        "type": "t_bool"
      },
      {
        "astId": 3241,
        "contract": "contracts/RewardTreasury.sol:RewardTreasury",
        "label": "assets",
        "offset": 0,
        "slot": "2",
        "type": "t_mapping(t_address,t_struct(AssetInfo)4746_storage)"
      },
      {
        "astId": 3245,
        "contract": "contracts/RewardTreasury.sol:RewardTreasury",
        "label": "supportedAssetList",
        "offset": 0,
        "slot": "3",
        "type": "t_array(t_address)dyn_storage"
      },
      {
        "astId": 3251,
        "contract": "contracts/RewardTreasury.sol:RewardTreasury",
        "label": "assetStats",
        "offset": 0,
        "slot": "4",
        "type": "t_mapping(t_address,t_struct(AssetStatistics)4754_storage)"
      },
      {
        "astId": 3256,
        "contract": "contracts/RewardTreasury.sol:RewardTreasury",
        "label": "processedRequestIds",
        "offset": 0,
        "slot": "5",
        "type": "t_mapping(t_bytes32,t_bool)"
      },
      {
        "astId": 3260,
        "contract": "contracts/RewardTreasury.sol:RewardTreasury",
        "label": "treasuryStats",
        "offset": 0,
        "slot": "6",
        "type": "t_struct(TreasuryStatistics)4766_storage"
      }
    ],
    "types": {
      "t_address": {
        "encoding": "inplace",
        "label": "address",
        "numberOfBytes": "20"
      },
      "t_array(t_address)dyn_storage": {
        "base": "t_address",
        "encoding": "dynamic_array",
        "label": "address[]",
        "numberOfBytes": "32"
      },
      "t_bool": {
        "encoding": "inplace",
        "label": "bool",
        "numberOfBytes": "1"
      },
      "t_bytes32": {
        "encoding": "inplace",
        "label": "bytes32",
        "numberOfBytes": "32"
      },
      "t_mapping(t_address,t_bool)": {
        "encoding": "mapping",
        "key": "t_address",
        "label": "mapping(address => bool)",
        "numberOfBytes": "32",
        "value": "t_bool"
      },
      "t_mapping(t_address,t_struct(AssetInfo)4746_storage)": {
        "encoding": "mapping",
        "key": "t_address",
        "label": "mapping(address => struct IRewardTreasury.AssetInfo)",
        "numberOfBytes": "32",
        "value": "t_struct(AssetInfo)4746_storage"
      },
      "t_mapping(t_address,t_struct(AssetStatistics)4754_storage)": {
        "encoding": "mapping",
        "key": "t_address",
        "label": "mapping(address => struct IRewardTreasury.AssetStatistics)",
        "numberOfBytes": "32",
        "value": "t_struct(AssetStatistics)4754_storage"
      },
      "t_mapping(t_bytes32,t_bool)": {
        "encoding": "mapping",
        "key": "t_bytes32",
        "label": "mapping(bytes32 => bool)",
        "numberOfBytes": "32",
        "value": "t_bool"
      },
      "t_mapping(t_bytes32,t_struct(RoleData)21_storage)": {
        "encoding": "mapping",
        "key": "t_bytes32",
        "label": "mapping(bytes32 => struct AccessControl.RoleData)",
        "numberOfBytes": "32",
        "value": "t_struct(RoleData)21_storage"
      },
      "t_string_storage": {
        "encoding": "bytes",
        "label": "string",
        "numberOfBytes": "32"
      },
      "t_struct(AssetInfo)4746_storage": {
        "encoding": "inplace",
        "label": "struct IRewardTreasury.AssetInfo",
        "members": [
          {
            "astId": 4739,
            "contract": "contracts/RewardTreasury.sol:RewardTreasury",
            "label": "assetAddress",
            "offset": 0,
            "slot": "0",
            "type": "t_address"
          },
          {
            "astId": 4741,
            "contract": "contracts/RewardTreasury.sol:RewardTreasury",
            "label": "symbol",
            "offset": 0,
            "slot": "1",
            "type": "t_string_storage"
          },
          {
            "astId": 4743,
            "contract": "contracts/RewardTreasury.sol:RewardTreasury",
            "label": "decimals",
            "offset": 0,
            "slot": "2",
            "type": "t_uint8"
          },
          {
            "astId": 4745,
            "contract": "contracts/RewardTreasury.sol:RewardTreasury",
            "label": "enabled",
            "offset": 1,
            "slot": "2",
            "type": "t_bool"
          }
        ],
        "numberOfBytes": "96"
      },
      "t_struct(AssetStatistics)4754_storage": {
        "encoding": "inplace",
        "label": "struct IRewardTreasury.AssetStatistics",
        "members": [
          {
            "astId": 4749,
            "contract": "contracts/RewardTreasury.sol:RewardTreasury",
            "label": "totalDeposited",
            "offset": 0,
            "slot": "0",
            "type": "t_uint256"
          },
          {
            "astId": 4751,
            "contract": "contracts/RewardTreasury.sol:RewardTreasury",
            "label": "totalPaid",
            "offset": 0,
            "slot": "1",
            "type": "t_uint256"
          },
          {
            "astId": 4753,
            "contract": "contracts/RewardTreasury.sol:RewardTreasury",
            "label": "balance",
            "offset": 0,
            "slot": "2",
            "type": "t_uint256"
          }
        ],
        "numberOfBytes": "96"
      },
      "t_struct(RoleData)21_storage": {
        "encoding": "inplace",
        "label": "struct AccessControl.RoleData",
        "members": [
          {
            "astId": 18,
            "contract": "contracts/RewardTreasury.sol:RewardTreasury",
            "label": "hasRole",
            "offset": 0,
            "slot": "0",
            "type": "t_mapping(t_address,t_bool)"
          },
          {
            "astId": 20,
            "contract": "contracts/RewardTreasury.sol:RewardTreasury",
            "label": "adminRole",
            "offset": 0,
            "slot": "1",
            "type": "t_bytes32"
          }
        ],
        "numberOfBytes": "64"
      },
      "t_struct(TreasuryStatistics)4766_storage": {
        "encoding": "inplace",
        "label": "struct IRewardTreasury.TreasuryStatistics",
        "members": [
          {
            "astId": 4757,
            "contract": "contracts/RewardTreasury.sol:RewardTreasury",
            "label": "totalDeposits",
            "offset": 0,
            "slot": "0",
            "type": "t_uint256"
          },
          {
            "astId": 4759,
            "contract": "contracts/RewardTreasury.sol:RewardTreasury",
            "label": "totalRewards",
            "offset": 0,
            "slot": "1",
            "type": "t_uint256"
          },
          {
            "astId": 4761,
            "contract": "contracts/RewardTreasury.sol:RewardTreasury",
            "label": "totalWithdrawals",
            "offset": 0,
            "slot": "2",
            "type": "t_uint256"
          },
          {
            "astId": 4763,
            "contract": "contracts/RewardTreasury.sol:RewardTreasury",
            "label": "rewardCount",
            "offset": 0,
            "slot": "3",
            "type": "t_uint256"
          },
          {
            "astId": 4765,
            "contract": "contracts/RewardTreasury.sol:RewardTreasury",
            "label": "largestReward",
            "offset": 0,
            "slot": "4",
            "type": "t_uint256"
          }
        ],
        "numberOfBytes": "160"
      },
      "t_uint256": {
        "encoding": "inplace",
        "label": "uint256",
        "numberOfBytes": "32"
      },
      "t_uint8": {
        "encoding": "inplace",
        "label": "uint8",
        "numberOfBytes": "1"
      }
    }
  }
}