{
  "address": "0x94943AD6604FeDDD45597441B277A3ECdFC3299E",
  "abi": [
    {
      "inputs": [],
      "stateMutability": "nonpayable",
      "type": "constructor"
    },
    {
      "inputs": [],
      "name": "AccessControlBadConfirmation",
      "type": "error"
    },
    {
      "inputs": [
        {
          "internalType": "address",
          "name": "account",
          "type": "address"
        },
        {
          "internalType": "bytes32",
          "name": "neededRole",
          "type": "bytes32"
        }
      ],
      "name": "AccessControlUnauthorizedAccount",
      "type": "error"
    },
    {
      "inputs": [],
      "name": "DuplicateRequestId",
      "type": "error"
    },
    {
      "inputs": [],
      "name": "InvalidAmount",
      "type": "error"
    },
    {
      "inputs": [],
      "name": "NoSpinRemaining",
      "type": "error"
    },
    {
      "inputs": [],
      "name": "Unauthorized",
      "type": "error"
    },
    {
      "anonymous": false,
      "inputs": [
        {
          "indexed": true,
          "internalType": "address",
          "name": "player",
          "type": "address"
        },
        {
          "indexed": false,
          "internalType": "uint256",
          "name": "amount",
          "type": "uint256"
        },
        {
          "indexed": true,
          "internalType": "bytes32",
          "name": "requestId",
          "type": "bytes32"
        }
      ],
      "name": "RewardRecorded",
      "type": "event"
    },
    {
      "anonymous": false,
      "inputs": [
        {
          "indexed": true,
          "internalType": "bytes32",
          "name": "role",
          "type": "bytes32"
        },
        {
          "indexed": true,
          "internalType": "bytes32",
          "name": "previousAdminRole",
          "type": "bytes32"
        },
        {
          "indexed": true,
          "internalType": "bytes32",
          "name": "newAdminRole",
          "type": "bytes32"
        }
      ],
      "name": "RoleAdminChanged",
      "type": "event"
    },
    {
      "anonymous": false,
      "inputs": [
        {
          "indexed": true,
          "internalType": "bytes32",
          "name": "role",
          "type": "bytes32"
        },
        {
          "indexed": true,
          "internalType": "address",
          "name": "account",
          "type": "address"
        },
        {
          "indexed": true,
          "internalType": "address",
          "name": "sender",
          "type": "address"
        }
      ],
      "name": "RoleGranted",
      "type": "event"
    },
    {
      "anonymous": false,
      "inputs": [
        {
          "indexed": true,
          "internalType": "bytes32",
          "name": "role",
          "type": "bytes32"
        },
        {
          "indexed": true,
          "internalType": "address",
          "name": "account",
          "type": "address"
        },
        {
          "indexed": true,
          "internalType": "address",
          "name": "sender",
          "type": "address"
        }
      ],
      "name": "RoleRevoked",
      "type": "event"
    },
    {
      "anonymous": false,
      "inputs": [
        {
          "indexed": true,
          "internalType": "address",
          "name": "player",
          "type": "address"
        },
        {
          "indexed": false,
          "internalType": "uint256",
          "name": "newAvailableSpins",
          "type": "uint256"
        },
        {
          "indexed": true,
          "internalType": "bytes32",
          "name": "requestId",
          "type": "bytes32"
        }
      ],
      "name": "SpinConsumed",
      "type": "event"
    },
    {
      "anonymous": false,
      "inputs": [
        {
          "indexed": true,
          "internalType": "address",
          "name": "player",
          "type": "address"
        },
        {
          "indexed": false,
          "internalType": "uint256",
          "name": "amount",
          "type": "uint256"
        },
        {
          "indexed": false,
          "internalType": "uint256",
          "name": "newAvailableSpins",
          "type": "uint256"
        },
        {
          "indexed": true,
          "internalType": "bytes32",
          "name": "requestId",
          "type": "bytes32"
        }
      ],
      "name": "SpinGranted",
      "type": "event"
    },
    {
      "inputs": [],
      "name": "BACKEND_ROLE",
      "outputs": [
        {
          "internalType": "bytes32",
          "name": "",
          "type": "bytes32"
        }
      ],
      "stateMutability": "view",
      "type": "function"
    },
    {
      "inputs": [],
      "name": "DEFAULT_ADMIN_ROLE",
      "outputs": [
        {
          "internalType": "bytes32",
          "name": "",
          "type": "bytes32"
        }
      ],
      "stateMutability": "view",
      "type": "function"
    },
    {
      "inputs": [
        {
          "internalType": "address",
          "name": "player",
          "type": "address"
        },
        {
          "internalType": "bytes32",
          "name": "requestId",
          "type": "bytes32"
        }
      ],
      "name": "consumeSpin",
      "outputs": [],
      "stateMutability": "nonpayable",
      "type": "function"
    },
    {
      "inputs": [
        {
          "internalType": "bytes32",
          "name": "role",
          "type": "bytes32"
        }
      ],
      "name": "getRoleAdmin",
      "outputs": [
        {
          "internalType": "bytes32",
          "name": "",
          "type": "bytes32"
        }
      ],
      "stateMutability": "view",
      "type": "function"
    },
    {
      "inputs": [
        {
          "internalType": "bytes32",
          "name": "role",
          "type": "bytes32"
        },
        {
          "internalType": "address",
          "name": "account",
          "type": "address"
        }
      ],
      "name": "grantRole",
      "outputs": [],
      "stateMutability": "nonpayable",
      "type": "function"
    },
    {
      "inputs": [
        {
          "internalType": "address",
          "name": "player",
          "type": "address"
        },
        {
          "internalType": "uint256",
          "name": "amount",
          "type": "uint256"
        },
        {
          "internalType": "bytes32",
          "name": "requestId",
          "type": "bytes32"
        }
      ],
      "name": "grantSpin",
      "outputs": [],
      "stateMutability": "nonpayable",
      "type": "function"
    },
    {
      "inputs": [
        {
          "internalType": "bytes32",
          "name": "role",
          "type": "bytes32"
        },
        {
          "internalType": "address",
          "name": "account",
          "type": "address"
        }
      ],
      "name": "hasRole",
      "outputs": [
        {
          "internalType": "bool",
          "name": "",
          "type": "bool"
        }
      ],
      "stateMutability": "view",
      "type": "function"
    },
    {
      "inputs": [
        {
          "internalType": "bytes32",
          "name": "",
          "type": "bytes32"
        }
      ],
      "name": "processedRequestIds",
      "outputs": [
        {
          "internalType": "bool",
          "name": "",
          "type": "bool"
        }
      ],
      "stateMutability": "view",
      "type": "function"
    },
    {
      "inputs": [
        {
          "internalType": "address",
          "name": "player",
          "type": "address"
        }
      ],
      "name": "profile",
      "outputs": [
        {
          "components": [
            {
              "internalType": "uint64",
              "name": "availableSpins",
              "type": "uint64"
            },
            {
              "internalType": "uint64",
              "name": "lifetimeSpinsEarned",
              "type": "uint64"
            },
            {
              "internalType": "uint64",
              "name": "lifetimeSpinsUsed",
              "type": "uint64"
            },
            {
              "internalType": "uint256",
              "name": "lifetimeRewards",
              "type": "uint256"
            }
          ],
          "internalType": "struct ISpinRewardManager.SpinProfile",
          "name": "",
          "type": "tuple"
        }
      ],
      "stateMutability": "view",
      "type": "function"
    },
    {
      "inputs": [
        {
          "internalType": "address",
          "name": "player",
          "type": "address"
        },
        {
          "internalType": "uint256",
          "name": "amount",
          "type": "uint256"
        },
        {
          "internalType": "bytes32",
          "name": "requestId",
          "type": "bytes32"
        }
      ],
      "name": "recordReward",
      "outputs": [],
      "stateMutability": "nonpayable",
      "type": "function"
    },
    {
      "inputs": [
        {
          "internalType": "bytes32",
          "name": "role",
          "type": "bytes32"
        },
        {
          "internalType": "address",
          "name": "callerConfirmation",
          "type": "address"
        }
      ],
      "name": "renounceRole",
      "outputs": [],
      "stateMutability": "nonpayable",
      "type": "function"
    },
    {
      "inputs": [
        {
          "internalType": "bytes32",
          "name": "role",
          "type": "bytes32"
        },
        {
          "internalType": "address",
          "name": "account",
          "type": "address"
        }
      ],
      "name": "revokeRole",
      "outputs": [],
      "stateMutability": "nonpayable",
      "type": "function"
    },
    {
      "inputs": [
        {
          "internalType": "address",
          "name": "",
          "type": "address"
        }
      ],
      "name": "spinProfiles",
      "outputs": [
        {
          "internalType": "uint64",
          "name": "availableSpins",
          "type": "uint64"
        },
        {
          "internalType": "uint64",
          "name": "lifetimeSpinsEarned",
          "type": "uint64"
        },
        {
          "internalType": "uint64",
          "name": "lifetimeSpinsUsed",
          "type": "uint64"
        },
        {
          "internalType": "uint256",
          "name": "lifetimeRewards",
          "type": "uint256"
        }
      ],
      "stateMutability": "view",
      "type": "function"
    },
    {
      "inputs": [],
      "name": "spinStatistics",
      "outputs": [
        {
          "components": [
            {
              "internalType": "uint256",
              "name": "totalSpinsGranted",
              "type": "uint256"
            },
            {
              "internalType": "uint256",
              "name": "totalSpinsConsumed",
              "type": "uint256"
            },
            {
              "internalType": "uint256",
              "name": "totalRewardsRecorded",
              "type": "uint256"
            }
          ],
          "internalType": "struct ISpinRewardManager.SpinStatistics",
          "name": "",
          "type": "tuple"
        }
      ],
      "stateMutability": "view",
      "type": "function"
    },
    {
      "inputs": [],
      "name": "spinStats",
      "outputs": [
        {
          "internalType": "uint256",
          "name": "totalSpinsGranted",
          "type": "uint256"
        },
        {
          "internalType": "uint256",
          "name": "totalSpinsConsumed",
          "type": "uint256"
        },
        {
          "internalType": "uint256",
          "name": "totalRewardsRecorded",
          "type": "uint256"
        }
      ],
      "stateMutability": "view",
      "type": "function"
    },
    {
      "inputs": [
        {
          "internalType": "bytes4",
          "name": "interfaceId",
          "type": "bytes4"
        }
      ],
      "name": "supportsInterface",
      "outputs": [
        {
          "internalType": "bool",
          "name": "",
          "type": "bool"
        }
      ],
      "stateMutability": "view",
      "type": "function"
    }
  ],
  "transactionHash": "0x6080a524e318ca7e38c5bf274cb4b526a97e0cd3ccf383e51fb1d7050d1994fd",
  "args": [],
  "numDeployments": 1,
  "solcInputHash": "efff8684b17874e72892a7d6ab8a4eb4",
  "bytecode": "0x608060405234801561000f575f5ffd5b5061001a5f3361004b565b506100457f25cf2b509f2a7f322675b2a5322b182f44ad2c03ac941a0af17c9b178f5d5d5f3361004b565b506100f4565b5f828152602081815260408083206001600160a01b038516845290915281205460ff166100eb575f838152602081815260408083206001600160a01b03861684529091529020805460ff191660011790556100a33390565b6001600160a01b0316826001600160a01b0316847f2f8788117e7eff1d82e926ec794901d17c78024a50270940304540a733656f0d60405160405180910390a45060016100ee565b505f5b92915050565b610bb3806101015f395ff3fe608060405234801561000f575f5ffd5b50600436106100fb575f3560e01c8063730f1fa911610093578063a217fddf11610063578063a217fddf14610365578063d3ae6a711461036c578063d547741f14610396578063e2389082146103a9575f5ffd5b8063730f1fa91461023757806391d148541461025957806392c2becc1461026c5780639dd9d0fd14610280575f5ffd5b8063248a9ca3116100ce578063248a9ca3146101ce5780632f2ff15d146101fe578063318876a51461021157806336568abe14610224575f5ffd5b806301ffc9a7146100ff57806304b1d96f146101275780630be1d8591461013c578063221d7e36146101bb575b5f5ffd5b61011261010d366004610a43565b6103d6565b60405190151581526020015b60405180910390f35b61013a610135366004610a8c565b61040c565b005b61018561014a366004610abc565b600160208190525f9182526040909120805491015467ffffffffffffffff80831692600160401b8104821692600160801b9091049091169084565b60405161011e949392919067ffffffffffffffff9485168152928416602084015292166040820152606081019190915260800190565b61013a6101c9366004610ad5565b610578565b6101f06101dc366004610afd565b5f9081526020819052604090206001015490565b60405190815260200161011e565b61013a61020c366004610b14565b6106fa565b61013a61021f366004610a8c565b610724565b61013a610232366004610b14565b610833565b610112610245366004610afd565b60026020525f908152604090205460ff1681565b610112610267366004610b14565b61086b565b6101f05f516020610b5e5f395f51905f5281565b61031061028e366004610abc565b604080516080810182525f808252602082018190529181018290526060810191909152506001600160a01b03165f908152600160208181526040928390208351608081018552815467ffffffffffffffff8082168352600160401b8204811694830194909452600160801b900490921693820193909352910154606082015290565b60405161011e91905f60808201905067ffffffffffffffff835116825267ffffffffffffffff602084015116602083015267ffffffffffffffff60408401511660408301526060830151606083015292915050565b6101f05f81565b610374610893565b604080518251815260208084015190820152918101519082015260600161011e565b61013a6103a4366004610b14565b6108d9565b6003546004546005546103bb92919083565b6040805193845260208401929092529082015260600161011e565b5f6001600160e01b03198216637965db0b60e01b148061040657506301ffc9a760e01b6001600160e01b03198316145b92915050565b6104235f516020610b5e5f395f51905f523361086b565b61043f576040516282b42960e81b815260040160405180910390fd5b815f0361045f5760405163162908e360e11b815260040160405180910390fd5b5f8181526002602052604090205460ff161561048d5760405162c7e13f60e61b815260040160405180910390fd5b5f818152600260209081526040808320805460ff191660019081179091556001600160a01b038716845290915281208054600160401b67ffffffffffffffff8083168701811667ffffffffffffffff1984168117839004821688019091169091026fffffffffffffffffffffffffffffffff1990921617178155600380549192859261051a908490610b3e565b909155505080546040805185815267ffffffffffffffff909216602083015283916001600160a01b038716917f9c59da7fd95ea6a8010a7b52f6bce91b0cfbe1f7322d7a9238d9e070c37e03fe91015b60405180910390a350505050565b61058f5f516020610b5e5f395f51905f523361086b565b6105ab576040516282b42960e81b815260040160405180910390fd5b5f8181526002602052604090205460ff16156105d95760405162c7e13f60e61b815260040160405180910390fd5b6001600160a01b0382165f9081526001602052604081208054909167ffffffffffffffff909116900361061f576040516380caf0a560e01b815260040160405180910390fd5b5f8281526002602052604081208054600160ff199091168117909155825477ffffffffffffffff0000000000000000ffffffffffffffff19811667ffffffffffffffff8083165f19018116918217600160801b67ffffffffffffffff19909416909217839004811684011690910217835560048054919290916106a3908490610b3e565b9091555050805460405167ffffffffffffffff909116815282906001600160a01b038516907f7bc80a2972bcab64d8877436aa3b57edca3e9118302950db23ce987929ad735d9060200160405180910390a3505050565b5f82815260208190526040902060010154610714816108fd565b61071e838361090a565b50505050565b61073b5f516020610b5e5f395f51905f523361086b565b610757576040516282b42960e81b815260040160405180910390fd5b815f036107775760405163162908e360e11b815260040160405180910390fd5b5f8181526002602052604090205460ff16156107a55760405162c7e13f60e61b815260040160405180910390fd5b5f818152600260209081526040808320805460ff191660019081179091556001600160a01b038716845291829052822090810180548501905560058054919285926107f1908490610b3e565b909155505060405183815282906001600160a01b038616907f043158c3118adbac657821d14bf2b849ced55751f411ada479851a01a78b80539060200161056a565b6001600160a01b038116331461085c5760405163334bd91960e11b815260040160405180910390fd5b6108668282610999565b505050565b5f918252602082815260408084206001600160a01b0393909316845291905290205460ff1690565b6108b460405180606001604052805f81526020015f81526020015f81525090565b5060408051606081018252600354815260045460208201526005549181019190915290565b5f828152602081905260409020600101546108f3816108fd565b61071e8383610999565b6109078133610a02565b50565b5f610915838361086b565b610992575f838152602081815260408083206001600160a01b03861684529091529020805460ff1916600117905561094a3390565b6001600160a01b0316826001600160a01b0316847f2f8788117e7eff1d82e926ec794901d17c78024a50270940304540a733656f0d60405160405180910390a4506001610406565b505f610406565b5f6109a4838361086b565b15610992575f838152602081815260408083206001600160a01b0386168085529252808320805460ff1916905551339286917ff6391f5c32d9c69d2a47ea670b442974b53935d1edc7fd64eb21e047a839171b9190a4506001610406565b610a0c828261086b565b610a3f5760405163e2517d3f60e01b81526001600160a01b03821660048201526024810183905260440160405180910390fd5b5050565b5f60208284031215610a53575f5ffd5b81356001600160e01b031981168114610a6a575f5ffd5b9392505050565b80356001600160a01b0381168114610a87575f5ffd5b919050565b5f5f5f60608486031215610a9e575f5ffd5b610aa784610a71565b95602085013595506040909401359392505050565b5f60208284031215610acc575f5ffd5b610a6a82610a71565b5f5f60408385031215610ae6575f5ffd5b610aef83610a71565b946020939093013593505050565b5f60208284031215610b0d575f5ffd5b5035919050565b5f5f60408385031215610b25575f5ffd5b82359150610b3560208401610a71565b90509250929050565b8082018082111561040657634e487b7160e01b5f52601160045260245ffdfe25cf2b509f2a7f322675b2a5322b182f44ad2c03ac941a0af17c9b178f5d5d5fa26469706673582212207e74e561320fc35637b44b3b68457514fdc8fa22d12da24a791f21aaf8a7d3cc64736f6c634300081c0033",
  "devdoc": {
    "details": "Backend-authorized only. Wheel logic remains off-chain.",
    "errors": {
      "AccessControlBadConfirmation()": [
        {
          "details": "The caller of a function is not the expected one. NOTE: Don't confuse with {AccessControlUnauthorizedAccount}."
        }
      ],
      "AccessControlUnauthorizedAccount(address,bytes32)": [
        {
          "details": "The `account` is missing a role."
        }
      ]
    },
    "events": {
      "RoleAdminChanged(bytes32,bytes32,bytes32)": {
        "details": "Emitted when `newAdminRole` is set as ``role``'s admin role, replacing `previousAdminRole` `DEFAULT_ADMIN_ROLE` is the starting admin for all roles, despite {RoleAdminChanged} not being emitted to signal this."
      },
      "RoleGranted(bytes32,address,address)": {
        "details": "Emitted when `account` is granted `role`. `sender` is the account that originated the contract call. This account bears the admin role (for the granted role). Expected in cases where the role was granted using the internal {AccessControl-_grantRole}."
      },
      "RoleRevoked(bytes32,address,address)": {
        "details": "Emitted when `account` is revoked `role`. `sender` is the account that originated the contract call:   - if using `revokeRole`, it is the admin role bearer   - if using `renounceRole`, it is the role bearer (i.e. `account`)"
      }
    },
    "kind": "dev",
    "methods": {
      "consumeSpin(address,bytes32)": {
        "params": {
          "player": "The player address",
          "requestId": "Unique request ID for replay protection"
        }
      },
      "getRoleAdmin(bytes32)": {
        "details": "Returns the admin role that controls `role`. See {grantRole} and {revokeRole}. To change a role's admin, use {_setRoleAdmin}."
      },
      "grantRole(bytes32,address)": {
        "details": "Grants `role` to `account`. If `account` had not been already granted `role`, emits a {RoleGranted} event. Requirements: - the caller must have ``role``'s admin role. May emit a {RoleGranted} event."
      },
      "grantSpin(address,uint256,bytes32)": {
        "params": {
          "amount": "The number of spins to grant",
          "player": "The player address",
          "requestId": "Unique request ID for replay protection"
        }
      },
      "hasRole(bytes32,address)": {
        "details": "Returns `true` if `account` has been granted `role`."
      },
      "profile(address)": {
        "params": {
          "player": "The player address"
        },
        "returns": {
          "_0": "The spin profile struct"
        }
      },
      "recordReward(address,uint256,bytes32)": {
        "params": {
          "amount": "The reward amount",
          "player": "The player address",
          "requestId": "Unique request ID for replay protection"
        }
      },
      "renounceRole(bytes32,address)": {
        "details": "Revokes `role` from the calling account. Roles are often managed via {grantRole} and {revokeRole}: this function's purpose is to provide a mechanism for accounts to lose their privileges if they are compromised (such as when a trusted device is misplaced). If the calling account had been revoked `role`, emits a {RoleRevoked} event. Requirements: - the caller must be `callerConfirmation`. May emit a {RoleRevoked} event."
      },
      "revokeRole(bytes32,address)": {
        "details": "Revokes `role` from `account`. If `account` had been granted `role`, emits a {RoleRevoked} event. Requirements: - the caller must have ``role``'s admin role. May emit a {RoleRevoked} event."
      },
      "spinStatistics()": {
        "returns": {
          "_0": "The spin statistics struct"
        }
      },
      "supportsInterface(bytes4)": {
        "details": "Returns true if this contract implements the interface defined by `interfaceId`. See the corresponding https://eips.ethereum.org/EIPS/eip-165#how-interfaces-are-identified[ERC section] to learn more about how these ids are created. This function call must use less than 30 000 gas."
      }
    },
    "title": "SpinRewardManager",
    "version": 1
  },
  "userdoc": {
    "kind": "user",
    "methods": {
      "constructor": {
        "notice": "Initializes the SpinRewardManager"
      },
      "consumeSpin(address,bytes32)": {
        "notice": "Consumes one spin ticket from a player"
      },
      "grantSpin(address,uint256,bytes32)": {
        "notice": "Grants spin tickets to a player"
      },
      "processedRequestIds(bytes32)": {
        "notice": "Mapping of request ID to processed status for replay protection"
      },
      "profile(address)": {
        "notice": "Returns a player's spin profile"
      },
      "recordReward(address,uint256,bytes32)": {
        "notice": "Records a reward won from a spin"
      },
      "spinProfiles(address)": {
        "notice": "Mapping of player address to spin profile"
      },
      "spinStatistics()": {
        "notice": "Returns aggregated spin statistics"
      },
      "spinStats()": {
        "notice": "Aggregated spin statistics"
      }
    },
    "notice": "On-chain accounting for spin tickets and rewards",
    "version": 1
  },
  "storageLayout": {
    "storage": [
      {
        "astId": 26,
        "contract": "contracts/SpinRewardManager.sol:SpinRewardManager",
        "label": "_roles",
        "offset": 0,
        "slot": "0",
        "type": "t_mapping(t_bytes32,t_struct(RoleData)21_storage)"
      },
      {
        "astId": 4270,
        "contract": "contracts/SpinRewardManager.sol:SpinRewardManager",
        "label": "spinProfiles",
        "offset": 0,
        "slot": "1",
        "type": "t_mapping(t_address,t_struct(SpinProfile)4876_storage)"
      },
      {
        "astId": 4275,
        "contract": "contracts/SpinRewardManager.sol:SpinRewardManager",
        "label": "processedRequestIds",
        "offset": 0,
        "slot": "2",
        "type": "t_mapping(t_bytes32,t_bool)"
      },
      {
        "astId": 4279,
        "contract": "contracts/SpinRewardManager.sol:SpinRewardManager",
        "label": "spinStats",
        "offset": 0,
        "slot": "3",
        "type": "t_struct(SpinStatistics)4884_storage"
      }
    ],
    "types": {
      "t_address": {
        "encoding": "inplace",
        "label": "address",
        "numberOfBytes": "20"
      },
      "t_bool": {
        "encoding": "inplace",
        "label": "bool",
        "numberOfBytes": "1"
      },
      "t_bytes32": {
        "encoding": "inplace",
        "label": "bytes32",
        "numberOfBytes": "32"
      },
      "t_mapping(t_address,t_bool)": {
        "encoding": "mapping",
        "key": "t_address",
        "label": "mapping(address => bool)",
        "numberOfBytes": "32",
        "value": "t_bool"
      },
      "t_mapping(t_address,t_struct(SpinProfile)4876_storage)": {
        "encoding": "mapping",
        "key": "t_address",
        "label": "mapping(address => struct ISpinRewardManager.SpinProfile)",
        "numberOfBytes": "32",
        "value": "t_struct(SpinProfile)4876_storage"
      },
      "t_mapping(t_bytes32,t_bool)": {
        "encoding": "mapping",
        "key": "t_bytes32",
        "label": "mapping(bytes32 => bool)",
        "numberOfBytes": "32",
        "value": "t_bool"
      },
      "t_mapping(t_bytes32,t_struct(RoleData)21_storage)": {
        "encoding": "mapping",
        "key": "t_bytes32",
        "label": "mapping(bytes32 => struct AccessControl.RoleData)",
        "numberOfBytes": "32",
        "value": "t_struct(RoleData)21_storage"
      },
      "t_struct(RoleData)21_storage": {
        "encoding": "inplace",
        "label": "struct AccessControl.RoleData",
        "members": [
          {
            "astId": 18,
            "contract": "contracts/SpinRewardManager.sol:SpinRewardManager",
            "label": "hasRole",
            "offset": 0,
            "slot": "0",
            "type": "t_mapping(t_address,t_bool)"
          },
          {
            "astId": 20,
            "contract": "contracts/SpinRewardManager.sol:SpinRewardManager",
            "label": "adminRole",
            "offset": 0,
            "slot": "1",
            "type": "t_bytes32"
          }
        ],
        "numberOfBytes": "64"
      },
      "t_struct(SpinProfile)4876_storage": {
        "encoding": "inplace",
        "label": "struct ISpinRewardManager.SpinProfile",
        "members": [
          {
            "astId": 4869,
            "contract": "contracts/SpinRewardManager.sol:SpinRewardManager",
            "label": "availableSpins",
            "offset": 0,
            "slot": "0",
            "type": "t_uint64"
          },
          {
            "astId": 4871,
            "contract": "contracts/SpinRewardManager.sol:SpinRewardManager",
            "label": "lifetimeSpinsEarned",
            "offset": 8,
            "slot": "0",
            "type": "t_uint64"
          },
          {
            "astId": 4873,
            "contract": "contracts/SpinRewardManager.sol:SpinRewardManager",
            "label": "lifetimeSpinsUsed",
            "offset": 16,
            "slot": "0",
            "type": "t_uint64"
          },
          {
            "astId": 4875,
            "contract": "contracts/SpinRewardManager.sol:SpinRewardManager",
            "label": "lifetimeRewards",
            "offset": 0,
            "slot": "1",
            "type": "t_uint256"
          }
        ],
        "numberOfBytes": "64"
      },
      "t_struct(SpinStatistics)4884_storage": {
        "encoding": "inplace",
        "label": "struct ISpinRewardManager.SpinStatistics",
        "members": [
          {
            "astId": 4879,
            "contract": "contracts/SpinRewardManager.sol:SpinRewardManager",
            "label": "totalSpinsGranted",
            "offset": 0,
            "slot": "0",
            "type": "t_uint256"
          },
          {
            "astId": 4881,
            "contract": "contracts/SpinRewardManager.sol:SpinRewardManager",
            "label": "totalSpinsConsumed",
            "offset": 0,
            "slot": "1",
            "type": "t_uint256"
          },
          {
            "astId": 4883,
            "contract": "contracts/SpinRewardManager.sol:SpinRewardManager",
            "label": "totalRewardsRecorded",
            "offset": 0,
            "slot": "2",
            "type": "t_uint256"
          }
        ],
        "numberOfBytes": "96"
      },
      "t_uint256": {
        "encoding": "inplace",
        "label": "uint256",
        "numberOfBytes": "32"
      },
      "t_uint64": {
        "encoding": "inplace",
        "label": "uint64",
        "numberOfBytes": "8"
      }
    }
  }
}